:020000040800F2
:100000007009002031020008E1270008CD26000811
:10001000DD270008F1110008B929000800000000E0
:10002000000000000000000000000000412800085F
:10003000F511000800000000E527000899280008D5
:100040004B0200084B0200084B0200084B0200085C
:100050004B0200084B0200084B0200084B0200084C
:100060004B0200084B0200084B0200084B0200083C
:100070004B0200084B0200084B0200084B0200082C
:100080004B0200084B0200084B0200084B0200081C
:100090004B0200084B0200084B0200084B0200080C
:1000A0004B0200084B0200084B0200084B020008FC
:1000B0004B0200084B0200084B0200084B020008EC
:1000C0004B0200084B0200084B0200084B020008DC
:1000D0004B020008AD2900084B0200084B02000843
:1000E0004B0200084B0200084B02000800F002F827
:1000F00000F08FF80AA090E8000C82448344AAF133
:100100000107DA4501D100F084F8AFF2090EBAE830
:100110000F0013F0010F18BFFB1A43F0010318473B
:100120006432000084320000103A24BF78C878C1DD
:10013000FAD8520724BF30C830C144BF04680C60ED
:10014000704700000023002400250026103A28BF35
:1001500078C1FBD8520728BF30C148BF0B60704739
:100160006E2900F0C782702900F00B846629AFF376
:1001700000806529AFF300806729AFF30080612913
:10018000AFF3008003681B0A28BF41F08001692992
:1001900000F07482642900F07182752900F06E828B
:1001A0006F2900F09983782900F0D783E92900F0BE
:1001B0003383E42900F03083F52900F02D83EF2903
:1001C00000F09683F82900F0D6830368DB0928BF86
:1001D00041F08001632900F0DF85732900F0E48598
:1001E000E32900F0EF85F32900F0F4850020704743
:1001F0001FB59DE8030000F0A9F900F0A3FE04007C
:100200000020002103F05CF8401C60601FBD10B5A9
:1002100010BD00F02DFE1146FFF7EAFF02F0D4FFFB
:1002200000F054FE03B4FFF7F2FF03BC00F084FEBD
:100230000948804709480047FEE7FEE7FEE7FEE77A
:10024000FEE7FEE7FEE7FEE7FEE7FEE704480549B6
:10025000054A064B704700009D280008ED00000885
:100260007003002070090020700500207005002038
:1002700070B5064600F04EF9056806F10B0020F057
:100280000704B4429CBF002070BD2B466A68BAB117
:100290001068A04210D304F1080188423CBF5068A6
:1002A000586007D35168101941601168091B01603B
:1002B00058601460101D70BD13465268002AE7D1C3
:1002C0002146284600F02EF90028DED170BD70B519
:1002D0000446051F00F01EF90068002C14BF446896
:1002E00070BD002C18BFAC423CBF20466468F8D3F8
:1002F00001680A18AA4218BF456003D12A6805465A
:100300001144016028684119A1421CBF6C6070BD96
:100310006168696021680844286070BD7CB51D462D
:1003200016460C00009007D04142A14202D320445F
:10033000401E01E04FF0FF30064B7B442A466946E1
:100340000190304600F0EFF9002C02D0009A002115
:1003500011707CBD0F04000010B5044603E002F0EC
:100360001FFF401C09D014F8010B05490028F6D1E5
:10037000BDE810400A2002F013BF4FF0FF3010BD5F
:100380001C020020014A00F0CBBB0000000000204E
:1003900040EA010310B59B070FD1042A0DD310C802
:1003A00008C9121F9C42F8D020BA19BA884201D954
:1003B000012010BD4FF0FF3010BD1AB1D30703D09C
:1003C000521C07E0002010BD10F8013B11F8014B52
:1003D0001B1B07D110F8013B11F8014B1B1B01D16E
:1003E000921EF1D1184610BD10B5431C02E010F862
:1003F000011B71B18107FAD14FF0013202C88C1A8A
:100400008C4314EAC211F9D0C01A0A0603D0C01EE8
:1004100010BDC01A10BD0A0401D0801E10BD090213
:10042000FCD0401E10BD032A40F2308010F0030CB7
:1004300000F0158011F8013BBCF1020F624498BF37
:1004400011F801CB00F8013B38BF11F8013BA2F1D4
:10045000040298BF00F801CB38BF00F8013B11F04F
:10046000030300F07F83083AC0F0088051F8043B92
:10047000083A51F804CBA0E80810F5E7121D5CBF5C
:1004800051F8043B40F8043BAFF30080D20724BF8F
:1004900011F8013B11F801CB48BF11F8012B24BF23
:1004A00000F8013B00F801CB48BF00F8012B704772
:1004B00002F0FF0343EA032242EA024200F086BB55
:1004C0004FF0000200B5134694469646203922BFED
:1004D000A0E80C50A0E80C50B1F12001BFF4F7AF38
:1004E000090728BFA0E80C5048BF0CC05DF804EB1A
:1004F000890028BF40F8042B08BF704748BF20F888
:10050000022B11F0804F18BF00F8012B7047704785
:1005100070477047004870474000002070477047A0
:100520007047704738B504460A4600206946AFF365
:100530000080002808BF38BD02460099204600F020
:1005400069FB012038BD012000F06CBCF8B5AFF3A9
:100550000080054600200C46102000BF0646A81962
:10056000A0420DD9324669460020AFF30080070053
:1005700008BF00F057FC0098A04218BF0546C419F8
:10058000FFF7C8FF05600746F01D20F00700461979
:10059000284600F00AF8B44208BFF8BDA21B314655
:1005A0003868BDE8F84000F035BB00210160C0E9C3
:1005B000011070471020704770B5044685690068C7
:1005C000C10601D5302600E02026C00707D070BD47
:1005D000D4E9012130469047206A401C20626D1EFC
:1005E000F6D570BD70B5044685690078C00707D19F
:1005F00070BDD4E9012120209047206A401C206270
:100600006D1EF6D570BD09684A0501D540B2704728
:10061000C905FCD500B2704709684A0501D5C0B2CA
:100620007047C905FCD580B2704770B50C460546C9
:10063000012A05D02878800600D5EA69002302E067
:10064000012305E05B1C934202D2E05C0028F9D153
:10065000A869E618C01AA861286A184428622846C2
:10066000FFF7AAFF04E0D5E9012114F8010B904738
:10067000B442F8D32846FFF7B5FF70BD2DE9F0412D
:100680000646002410687529314616A510D0FFF7DC
:10069000BAFF002802DA404213A507E031688A0752
:1006A00001D512A502E0490704D511A5012401E0F6
:1006B000FFF7B2FF00210A2206F1240709E0B0FB90
:1006C000F2FCB0FBF2F302FB1C0030307854184609
:1006D000491C0028F3D123462A463046BDE8F041A4
:1006E00000F0F7BA000000002D0000002B00000011
:1006F0002000000011680268006A530501D50870E7
:100700000AE0D30501D5088006E0130603D5C21719
:10071000C1E9000200E008600120704701694A1C3D
:1007200002610878704700B58FB0CDE90131002132
:10073000059105497944CDE903101146684600F05A
:100740002BF90FB000BD0000E5FFFFFFD1E900234A
:100750009A4202D2531C0B60107070472DE9FF5F64
:1007600015468A460446DFF8AC80F8440027D8E9ED
:1007700000103E46CDE9001010E03AF816106A4627
:1007800002A800F02BFB411C07D02178890603D575
:10079000E269391891420DD80744761C207880060A
:1007A00002D5E069B84205DDAE42E6DB3AF8160054
:1007B0000028E2D1A069C01BA0612046FFF7FCFE23
:1007C000D8E90010CDE90010002017E03AF8181021
:1007D0006A4602A800F002FBB0F1FF3F81460BD051
:1007E00000250DF1080B05E0D4E901211BF80500F7
:1007F00090476D1C4D45F7D308F10100B04280468B
:10080000E4DB206A384420622046FFF7EBFEBDE8B7
:10081000FF9F00007E2B00002DE9F0418046D21D95
:1008200022F007020025D2E90002F52915A614D00E
:10083000011E72F1000106DA0023D0EB030063EB26
:10084000020211A608E0D8F800108B0701D50FA608
:1008500002E0490701D50EA601251146002408F142
:10086000240704E000F0F0F930323A55641C50EAF5
:100870000102F7D12B46324621464046BDE8F04101
:1008800000F027BA000000002D0000002B0000003F
:100890002000000030B4002100F1240408E002F040
:1008A0000705D208303542EA4372DB086554491C1B
:1008B00052EA0305F3D10468002310A2250708D5E6
:1008C00004F020040C4304D0C46901230CA2641E6C
:1008D000C46130BC00F0FDB910B504462146106873
:1008E000FFF79AFE02462046BDE810400023D1E7FC
:1008F000D21D22F00701D1E90023CBE70000000060
:1009000030000000F0B40D460188090502D5214CE5
:100910007C4402E01F4C7C440E34002100F124068C
:1009200008E002F00F071209E75D42EA03721B09B3
:100930007754491C52EA0307F3D1027800231207C7
:1009400004D5702D06D009B1022311342246F0BC23
:1009500000F0BFB901231034F8E770B504460D4626
:1009600021461068FFF758FE024629462046BDE89A
:1009700070400023C6E7D21D22F00703D3E900230D
:10098000C0E70368126843F0200303600823C361D3
:100990000023B7E7E02900002DE9F05F894604460F
:1009A0004FF0000ADFF874B1FB44C0F820A02046E5
:1009B000E1688847002874D0252806D0D4E90121B1
:1009C0009047206A401C2062F1E700265F462046DF
:1009D000E16888472028054607DB312D05D27819C4
:1009E00010F8200C08B10643F1E7B00701D526F056
:1009F0000406C4F81CA00027C4F818A02A2D09D0AA
:100A0000284602F055FC38B304EB8708303DC8F89F
:100A1000185019E059F8041B204604EB8702916135
:100A2000E1688847012F054618D1E069002820DADF
:100A300026F020061DE0D8F8180000EB800005EB3A
:100A400040003038C8F818002046E168884705465D
:100A500002F02EFC0028EED1012F0AD02E2D08D155
:100A60002046E16888477F1C0546022F46F0200695
:100A7000C4DBA069002803DA404246F00106A06109
:100A8000F00701D026F010066C2D0BD0682D09D090
:100A90004C2D39D06A2D35D0742D35D07A2D33D0E8
:100AA00016E038E0E1682F4620468847B842054600
:100AB00009D16C2F26D04FF48060E16806432046B0
:100AC0008847054604E06C2F1AD04FF48070064327
:100AD0000DB3A5F14100192802D8203546F400666F
:100AE0004A462946204626604E46FFF739FB80B12C
:100AF00001280BD0F61D26F0070000F1080956E783
:100B00004020E4E78020D8E70020D6E706F104097A
:100B10004DE7284652E7206ABDE8F09F70290000A3
:100B20002DE9F04115460E46040002D12C6804B9A7
:100B30000BA4204600F08DF90444207870B12746BC
:100B40003146384600F075F90444207810B1002091
:100B500004F8010B38462C60BDE8F0810027F9E766
:100B60000000000010B5203AC0F00B80B1E818502A
:100B7000A0E81850B1E81850A0E81850203ABFF487
:100B8000F5AF5FEA027C24BFB1E81850A0E8185026
:100B900044BF18C918C0BDE810405FEA827C24BF7A
:100BA00051F8043B40F8043B08BF7047D20728BF08
:100BB00031F8023B48BF11F8012B28BF20F8023B57
:100BC00048BF00F8012B70474FF000020429C0F025
:100BD000128010F0030C3FF475ACCCF1040CBCF1A6
:100BE000020F18BF00F8012BA8BF20F8022BA1EBC1
:100BF0000C01FFF767BC5FEAC17C24BF00F8012B42
:100C000000F8012B48BF00F8012B704700487047DF
:100C100038000020034640688C46002818BF8842F0
:100C20003CBF03464068F8D318681844884207D090
:100C30000CF1030020F00700001D411A521A014672
:100C4000081D0A60FFF743BB30B5B0F10A0271F12D
:100C500000034FEA900E4EEA817EB0EB0E0061EB8E
:100C600091014FEA101E4EEA017E10EB0E0041EB9F
:100C700011114FEA102E4EEA016E10EB0E0041EBFF
:100C800011214FEA104E4EEA014E10EB0E0041EBDF
:100C90001141401841F100014FEAD00040EA417093
:100CA0004FEAD1014FEA810444EA907410EB8005C9
:100CB00044EB01046D1944EB0404521BA3414FF0B3
:100CC000000348BF0A3200D530BD401C41F100018D
:100CD00030BD2DE9F0470D4699469246044600F195
:100CE00024080168880604D5E06921F0100121601C
:100CF00000E00120A84201DD471B00E00027A169B8
:100D00007A1902EB0900081AA0612078C00602D403
:100D10002046FFF751FC002608E0D4E901211AF82B
:100D200006009047206A401C761C20624E45F4DB8A
:100D30002078C0060AD52046FFF73EFC06E0D4E93D
:100D4000012130209047206A401C2062381EA7F104
:100D50000107F4DC07E0D4E9012118F80500904709
:100D6000206A401C2062281EA5F10105F3DC204604
:100D7000FFF738FC2078000602D50220BDE8F08796
:100D80000120FBE710B5436913B1AFF3008001E028
:100D9000FFF74BFC012010BD127800F124010A700E
:100DA00000224A700122EDE711684FF0FF32E9E7B7
:100DB00010B5436913B1AFF3008001E0FFF7CEFC3B
:100DC000012010BD128800F1240182840022C28417
:100DD0000122EDE711684FF0FF32E9E72DE9F0411C
:100DE00016460C46054600F069F8036893F80101C1
:100DF000012807D0FF2C12D8185D80B101202C707B
:100E0000BDE8F081D3F807013246214603F207130B
:100E1000C7182846BC46BDE8F041002360474FF0A4
:100E2000FF30EDE710B500F05FF8BDE8104000F0CE
:100E300056B830B503461D781DB10A4603E0AC42F2
:100E400001D1181A30BD12F8014B002CF7D15B1CF0
:100E5000F1E730B503461D783DB10A4612F8014B63
:100E60001CB1AC42FAD15B1CF5E7181A30BD7047D3
:100E70007546FFF7CBFEAE4605006946534620F0A7
:100E80000700854618B020B5FFF7E0F9BDE820401F
:100E90004FF000064FF000074FF000084FF0000B36
:100EA000AC46ACE8C009ACE8C009ACE8C009ACE8A5
:100EB000C00921F007018D467047000010B500F011
:100EC00041F8001D10BD00BFF923000010B5044615
:100ED000AFF300802046BDE81040FFF7A3B900281B
:100EE00001D000F029B8704710B5012805D00021C5
:100EF00003A000F02BF8012010BD09A1F8E70000C5
:100F000053494752544D454D3A204F7574206F66F2
:100F10002068656170206D656D6F7279000000005A
:100F20003A2048656170206D656D6F727920636F3E
:100F3000727275707465640001491820ABBEFEE7DB
:100F400026000200004870475800002070B5054692
:100F50000C460A2000E06D1C00F011F835B128782D
:100F60000028F8D102E0641C00F009F814B12078E0
:100F70000028F8D1BDE870400A20AFF3008008B522
:100F800069468DF800000320ABBE08BD4FF0013C60
:100F900050F8042B51F8043B9A4221D1A2EB0C03E8
:100FA000934313EACC1317D150F8042B51F8043BA8
:100FB0009A4215D1A2EB0C03934313EACC130BD145
:100FC00050F8042B51F8043B9A4209D1A2EB0C03D0
:100FD000934313EACC13DBD04FF00000704700BFFF
:100FE000D01A01BAB1FA81F101F0180122FA01F028
:100FF000CB40DBB2C0B2C01AC1F120012CFA01F320
:10100000D11A914311EAC311E6D170472DE9F04797
:1010100082B00C9D9646DDE90AC2044625B1022D38
:1010200064D90125E0E000BFBCF1000F4FF00105DD
:1010300000F0DA80042AC0F0D780002C18BF002905
:1010400000F0C580BEF1000F00F0C180002B00F061
:10105000BE800320C4E910300A2084F8480042F61C
:101060006930C4E90E1EC0F6000042F6E92142F6DE
:10107000796342F68566C0F60001C0F60003C0F64B
:10108000000684E84B0042F64170C0F60000206282
:1010900042F6BD10C0F60000606242F69D70C0F6D8
:1010A0000000A06243F2A100C0F60000E06242F638
:1010B000B970C0F6000043F2E50543F2F90E42F6BE
:1010C000F94742F69168206343F2CD00C0F600056F
:1010D000C0F6000EC0F60007C0F60008C0F600001B
:1010E000C4E9045EC4E90678606370E00DAE301DAB
:1010F00001900D98012D15D106F108050195BCF15F
:10110000000F4FF001056FD0042A6DD3002C18BFDB
:1011100000295CD0BEF1000F59D0002B57D0756864
:1011200011E000BFBCF1000F4FF001055CD0042AB4
:101130005AD3002C18BF002949D0BEF1000F46D069
:10114000002B44D00A25C4E9103042F6693084F8F7
:101150004850C0F6000042F6E92342F6796542F6AF
:10116000856643F2E50743F2F90842F6F94942F68B
:10117000916AC0F60003C0F60005C0F60006C0F68E
:101180000007C0F60008C0F60009C0F6000A84E8AF
:10119000E90742F64170C0F6000042F6BD1342F680
:1011A0009D7543F2A10642F6B97743F2CD0804F1EA
:1011B0002009C0F60003C0F60005C0F60006C0F620
:1011C0000007C0F6000889E8E901C4E90E1E604680
:1011D0000021C4E913C2002501F0A4FF656528467B
:1011E00002B0BDE8F08700BF284602B0BDE8F08736
:1011F000FEE7000070470000EFF3108072B600BFFA
:10120000FEE7000040F20010C2F20000D0E9011039
:10121000081A48F21F51C830C5F2EB1180FB0112C9
:10122000911101EBD271C82201FB1200704700003E
:10123000014690F82100022816D10868D1E90FC3B1
:10124000026822F00E020260026822F001020260CF
:10125000012000FA03F2CCF8042081F821000020DC
:10126000002281F82020704704208863012000229A
:1012700081F820207047000080B590F821100229E5
:1012800024D10268116821F00E0111602F2113682A
:10129000C4F202018A4240F20401C4F2020123F0C6
:1012A0000103136016DD3023C4F202039A421DD0FD
:1012B0004423C4F202039A421CD05823C4F202030E
:1012C0009A421DD14FF4803322E000BF0421816394
:1012D000012080BD0823C4F202039A420ED01C23D1
:1012E000C4F202039A420BD1102311E04FF4807331
:1012F0000EE000BF4FF480530AE000BF012307E077
:1013000001F1680C4FF08073624508BF4FF4801301
:101310000B60012180F82110426B002180F8201021
:101320000AB190470021084680BD00002DE9F04F2A
:1013300082B00E68002E00F0038141F20042C4F238
:101340000102042340F2004E904208BF03234FF6EF
:10135000FF7CC4F2010E009300240123C1F2100CA3
:101360004FF0000A4FF0000949E000BF012704F0E8
:101370000C030F229A402BEA020207FA03F34FEA0A
:101380009A051A4346F82520D1F804B040F20C45DE
:101390005FEACB22DEF8082054BF22EA080242EAC4
:1013A0000802C4F20105CEF808202A685FEA8B2300
:1013B00054BF22EA080242EA08022A605FEA8B333D
:1013C000DEF8042054BF22EA080242EA08025FEA7B
:1013D000CB33CEF80420DEF800204FF0010354BFD9
:1013E00022EA080242EA0802CEF800200E680AF15A
:1013F000010A36FA0AF204F1040400F0A18003FAAB
:101400000AF816EA080FF1D04E68664512DC122E73
:1014100056D8DFE806F0350B454955555555555515
:10142000555555555555554D510000BFD1F80C90A7
:1014300046E000BF4FF6FF72C1F2210296420FDC78
:101440000022C1F2110296421AD00022C1F2120209
:10145000964215D00022C1F22102964210D02FE010
:101460000022C1F2220296420AD00022C1F23102C9
:10147000964205D00022C1F23202964220D100BF2E
:101480008A684AB1012A14BFC0F81480C0F81080DD
:101490004FF0080914E000BF4FF0040910E000BF4E
:1014A000CA6802F108090BE04FF0000908E000BF2C
:1014B000CA6802F1040903E0CA6802F10C0900BF1E
:1014C00022460646BAF1080F24BF203A0436376890
:1014D0000F25954027EA050509FA02F22A433260F2
:1014E000CA79D2067FF582AF41F21803C4F2020333
:1014F0001A68AEF57E7642F001021A601A6802F0B0
:1015000001020192019A2AF0030256F802B040F655
:101510000002C4F20102904210D040F60042C4F230
:10152000010290423FF422AF41F20002C4F20102F4
:10153000009F904208BF022719E700BF002716E767
:1015400002B0BDE8F08F0000002A08BF0904016165
:101550007047000040F26C30C2F200000068704733
:1015600040F2040040F26C31C2F20000C2F200010D
:1015700000780A68104408607047000080B542F2A5
:101580000000C4F20200016841F010010160032074
:1015900000F088F8032000F005F800F027F800209C
:1015A00080BD000070B540F20406C2F2000640F2B1
:1015B0000C013278C2F200014FF47A730968B3FB70
:1015C000F2F20446B1FBF2F1084600F05DFB0F2C8D
:1015D0004FF0010508D838B94FF0FF3021460022FE
:1015E000002500F033F87460284670BD82B041F2E7
:1015F0001800C4F20200016841F0010101600168B5
:1016000001F0010101910199416841F0805141606F
:10161000406800F0805000900098052002B000F073
:1016200041B80000002848BF7047C1B200F01F0059
:10163000012202FA00F04EF20012CEF2000242EA5B
:10164000D10121F0030108607047000010B54EF68B
:101650000C5CCEF2000CDCF80030C3F3022E8EF0EE
:101660000704042C28BF0424BEF103034FF0FF3EFF
:101670000EFA04F438BF0023A14399400EFA03F395
:101680009A43114300F00F0200F160430901043A4C
:1016900003F564436244002848BF02F10C0319704B
:1016A00010BD00004EF60C51CEF200010A684FF654
:1016B000FF031A4060F30A2242F0806040F0FD70A0
:1016C000086070472DE9F04381B0002800F0858064
:1016D00042F20008C4F202080446D8F800000D46A1
:1016E00000F0070088420CD2D8F8000020F0070074
:1016F0002843C8F80000D8F8000000F00700A8420E
:101700006BD1206841F204098107C4F2020917D5A0
:10171000410705D5D9F8001041F4E061C9F800107F
:10172000010705D5D9F8001041F46051C9F800103F
:10173000D9F80010A26821F0F0011143C9F8001097
:10174000C00741D1D8F8000000F00700A8420CD92A
:10175000D8F8000020F007002843C8F80000D8F8A7
:10176000000000F00700A84237D12068410707D5E4
:10177000D9F80010E26821F4E0611143C9F80010C3
:10178000000708D5D9F80000216920F4605040EA2C
:10179000C100C9F80000D9F8002002F00C000828A8
:1017A00041F20020C0F27A0050D143F24733C2F335
:1017B0008341C0F60003595CD2033BD440F60010CD
:1017C000C0F23D00484341E0606802280AD0012889
:1017D0002AD159F8041C890308D4012001B0BDE8BE
:1017E000F08300BF59F8041C8901F6D5D9F8001020
:1017F00021F003010843C9F80000FFF7ABFE0646DD
:1018000041F28837D9F80000616800F00C00B0EBB5
:10181000810F97D0FFF79EFE801BB842F2D90320BC
:1018200001B0BDE8F08300BF59F8041C8907D4D586
:10183000DCE700BFD9F8002043F24533C2F3404251
:10184000C0F600039A5C4843B0FBF2F0D9F80010F0
:1018500043F22D32C1F30311C0F60002515C40F295
:101860000C0220FA01F140F20800C2F20000006808
:10187000C2F200021160FFF795FE002001B0BDE842
:10188000F083000040F20C0041F20401C2F20000BB
:10189000C4F202010068096843F23D32C1F302213B
:1018A000C0F60002515CC8407047000040F20C00D6
:1018B00041F20401C2F20000C4F2020100680968AA
:1018C00043F23D32C1F3C221C0F60002515CC84070
:1018D000704700002DE9F04182B0002868D004462E
:1018E000007841F20006C007C4F2020625D07068F5
:1018F00000F00C0004281BD0706800F00C000828D1
:1019000002D17068C00313D46068002800F06881B9
:10191000B0F5A02F00F07C81B0F5803F00F07C8115
:10192000306820F480303060306820F4802076E128
:101930003068800301D56068D0B32078800718D55F
:10194000706810F00C0F07D0706800F00C000828C9
:101950006ED17068C0036BD43068800702D52069EF
:10196000012825D13068616920F0F80040EAC10003
:101970003060207800071FD42078400732D4E56912
:1019800095B1706800F00C00082840F08F80012DA0
:101990000ED07068216A00F480328A4208D1616AF0
:1019A00000F47010884203D1002002B0BDE8F0813D
:1019B000012002B0BDE8F081A069002862D00020BB
:1019C000C4F242200121C0F88014FFF7C3FD054690
:1019D000706A800700F18C80FFF7BCFD401B022875
:1019E000F6D92AE1F06910F0805808D1F06940F08A
:1019F0008050F061F06900F080500090009847F24C
:101A00000007C4F200073868C00529D4386840F4DC
:101A100080703860FFF79EFD054600BF3868C0053E
:101A20001ED4FFF797FD401B6428F7D905E100BFDE
:101A30002069002840F20000C4F2422000F08280B9
:101A400001210160FFF786FD054600BF3068800771
:101A50003FF588AFFFF77EFD401B0228F6D9ECE08A
:101A6000E068002800F08080052800F097800128B9
:101A700000F09880306A20F001003062306A20F077
:101A8000040092E00020C4F242200021C0F880143B
:101A9000FFF760FD054600BF706A80077FF56CAFF9
:101AA000FFF758FD401B0228F6D9C6E00027C4F214
:101AB000422700203866FFF74DFD022D05460BD169
:101AC0003068800140F1BE80FFF744FD401B0228D2
:101AD0004FF00300F4D968E7306880017FF564AF08
:101AE000FFF738FD401B02284FF00300F4D95CE7F4
:101AF00040F20C00C2F20000006844F6D351C1F27B
:101B00006201A0FB0101480A019000BF00BF0198DB
:101B1000411E002801913FF42FAF00BF0198411EE4
:101B2000002801913FF428AF00BF0198411E002812
:101B300001913FF421AF00BF0198411E002801919F
:101B4000E4D119E700210160FFF704FD054600BF5D
:101B5000306880077FF50DAFFFF7FCFC401B0228C3
:101B60004FF00300F4D920E7306A20F00100306222
:101B7000306A20F004003062FFF7ECFC054641F2C9
:101B8000883700BF306A800720D5FFF7E3FC401B91
:101B9000B8424FF00300F5D907E700BF306A40F0C4
:101BA00004003062306A40F001003062FFF7D2FC7E
:101BB000054641F2883700BF306A800706D4FFF738
:101BC000C9FC401BB842F7D937E000BFB8F1000F9D
:101BD0007FF4D5AEF06920F08050F061CFE600BF11
:101BE000306820F480303060306820F4802030602D
:101BF000FFF7B0FC054600BF306880037FF59DAE5F
:101C0000FFF7A8FC401B64284FF00300F4D9CCE692
:101C1000306840F480203060306840F480303060BC
:101C2000FFF798FC054600BF306880033FF585AE9E
:101C3000FFF790FC401B6428F6D9032002B0BDE8F2
:101C4000F08100BF206AB0F5803F05D17168A268BD
:101C500021F40031114371607168626A21F47411DA
:101C600011430843706001203866FFF773FC044697
:101C7000306880013FF598AEFFF76CFC001B02282E
:101C80004FF00300F4D990E6411E0020B0EB116F35
:101C90001CBF012070474EF21002CEF200025160CC
:101CA0004EF62351CEF20001F0230B700721906015
:101CB000116070477047000070470000B0B582B0F7
:101CC000044600680168C368426901F02F05202DB1
:101CD00003F0200506D12DB1204602B0BDE8B0408A
:101CE00000F0E4BD5FEA017C1EBF02F0010E03F4C8
:101CF000907212EB0E0253D1226B012A05D111F022
:101D0000100218BF13F0100236D10A0622D513F0C4
:101D100080021FD094F8411021293FD1A168B1F56C
:101D2000805F03D12169002900F07082216A4A1C7A
:101D3000226209784160E18C01390A04E1842DD1E5
:101D4000C16821F08001C160C16841F04001C160FB
:101D500002B0B0BD490621D513F040011ED0C168C4
:101D600021F04001C1602021204684F8411002B0DA
:101D7000BDE8B04000F0A8BC0021019101680191CC
:101D80004168019101994069400613D4A08DE18D0D
:101D9000E28D002A18BF884240F0BA8102B0B0BD7F
:101DA000CA0718BF13F4807240F0B6804A0700F1EA
:101DB000B980BEE0E06B016849688AB2002AEDD0C4
:101DC000A38D9A42EAD2E1858069202800F09C80A8
:101DD000206850E8030F216820F4807041E8030276
:101DE000DAB1206850E8030F216820F4807041E8E0
:101DF000030292B1206850E8030F216820F480703C
:101E000041E803024AB1206850E8030F216820F43A
:101E1000807041E80302002ADAD1206850E8050FFB
:101E2000216820F0010041E80502DAB1206850E89D
:101E3000050F216820F0010041E8050292B12068F9
:101E400050E8050F216820F0010041E805024AB181
:101E5000206850E8050F216820F0010041E80502E4
:101E6000002ADAD1206850E8050F216820F04000F0
:101E700041E80502DAB1206850E8050F216820F03A
:101E8000400041E8050292B1206850E8050F216842
:101E900020F0400041E805024AB1206850E8050FF3
:101EA000216820F0400041E80502002ADAD1202014
:101EB00084F8420000202063206850E8030F216866
:101EC00020F0100041E80302DAB1206850E8030F67
:101ED000216820F0100041E8030292B1206850E828
:101EE000030F216820F0100041E803024AB1206886
:101EF00050E8030F216820F0100041E80302002A97
:101F0000DAD1E06BFFF794F902206063A08DE18DD8
:101F1000401A81B2204674E1626C42F001026264B0
:101F20004A0706D5BEF1000F03D0626C42F00202F0
:101F300062648A0706D5BEF1000F03D0626C42F0DE
:101F400004026264BCF1000F09D545EA0E02B2FA40
:101F500082F2520903D1626C42F008026264626C40
:101F6000002A3FF41BAF11F0200118BF002D03D051
:101F7000204600F09BFC20684069616C00F0400046
:101F800001F00801401800F0B58000BF206850E85B
:101F9000030F216820F4907041E80302BAB320686F
:101FA00050E8030F216820F4907041E8030272B3F7
:101FB000206850E8030F216820F4907041E8030284
:101FC0002AB3206850E8030F216820F4907041E89C
:101FD0000302002ADAD11AE0206850E8050F2168D0
:101FE00020F0010041E80502DAB1206850E8050F51
:101FF000216820F0010041E8050292B1206850E814
:10200000050F216820F0010041E805024AB120686F
:1020100050E8050F216820F0010041E80502002A80
:10202000DAD1206B012824D1206850E8030F216801
:1020300020F0100041E80302DAB1206850E8030FF5
:10204000216820F0100041E8030292B1206850E8B6
:10205000030F216820F0100041E803024AB1206814
:1020600050E8030F216820F0100041E80302002A25
:10207000DAD1202084F842000020206320684069E3
:1020800040063FD5206850E8050F216820F0400049
:1020900041E80502DAB1206850E8050F216820F018
:1020A000400041E8050292B1206850E8050F216820
:1020B00020F0400041E805024AB1206850E8050FD1
:1020C000216820F0400041E80502002ADAD1E06BE7
:1020D000C0B142F6A101C0F600014163FFF7CCF8A0
:1020E00000283FF45BAEE06B416B02B0BDE8B0404E
:1020F000084700BF2046FFF7DFFD0020606402B004
:10210000B0BD00BF204602B0BDE8B040FFF7D4BD6F
:10211000401A216851E8031F226821F4907142E8B7
:102120000313DBB1216851E8031F226821F4907189
:1021300042E8031393B1216851E8031F226821F498
:10214000907142E803134BB1216851E8031F2268E4
:1021500021F4907142E80313002BDAD1216851E891
:10216000051F226821F0010142E80513DBB1216857
:1021700051E8051F226821F0010142E8051393B1DF
:10218000216851E8051F226821F0010142E805138A
:102190004BB1216851E8051F226821F0010142E896
:1021A0000513002BDAD1202184F84210002121638D
:1021B000216851E8031F226821F0100142E803134F
:1021C000DBB1216851E8031F226821F0100142E8C9
:1021D000031393B1216851E8031F226821F0100115
:1021E00042E803134BB1216851E8031F226821F034
:1021F000100142E80313002BDAD1022281B22046FB
:10220000626302B0BDE8B040FFF754BD216A31F807
:10221000022B6FF35F22426021628CE5002804BF2D
:102220000120704710B5044690F8410028B90020FD
:1022300084F84000204600F063F8242084F8410030
:102240002068D4E90212C36823F40053C360036911
:1022500023F440531A430261D4E904231143C268B2
:10226000194341F20C639A431143C1604169A26969
:1022700021F44071114343F60002C4F2010290427E
:10228000416103D0FFF7FEFA02E000BFFFF70EFB4B
:102290006268192148439100B0FBF1F048F21F51E8
:1022A000C5F2EB11A0FB01235A094FF69C73C0F64F
:1022B000FF7302FB0300322303EB0010A0FB0101BC
:1022C000F02303EA5113206803EB0212C1F3431118
:1022D00011448160016921F490410161416921F05B
:1022E0002A014161C16841F40051C16000202021F0
:1022F000606484F8411084F84210606310BD0000EF
:1023000070B586B040F60004C4F20104006804F51C
:10231000405100268842049602D006B070BD00BF2E
:1023200041F21800C4F20200016802AD41F480419C
:102330000160016801F4804101910199016841F057
:10234000040101600068294600F004000190019832
:102350004FF4007002900220039003200590204665
:10236000FEF7E4FF4FF48060CDE9020620462946DF
:102370000496FEF7DBFF252001210022FFF766F916
:102380002520FFF74FF906B070BD000090F84230ED
:10239000202B1CBF0220704700294FF0010318BFFB
:1023A000002A01D11846704700230363816222216D
:1023B0008285C285436480F842100169006819B1C2
:1023C000C16841F48071C1604169002341F001019D
:1023D0004161C16841F02001C160184670470000AA
:1023E000B0B5016843F60002C4F20102914218BF81
:1023F000B0BD40F20015C2F20005D5E9012348F254
:102400001F5CD31AC833C5F2EB1C83FB0C14A1115B
:1024100001EBD4714FF0C80E01FB1E31C6290EDC52
:10242000511C81FB0C34A31103EBD4732C7803FBF8
:102430001E1140F25413C2F200039C54696040F232
:102440000011C2F200010122BDE8B040FFF79EBFBB
:102450002DE9F04381B0044690F84100202840F077
:10246000B180884600294FF0010000F0D680164662
:10247000002A00F0D2800020606421201D4684F8EC
:102480004100FFF767F8A684E684A1680646B1F527
:10249000805F03D12069002800F0988047464FF004
:1024A0000008E18C2068002900F0968005F1010900
:1024B0000BE000BF47B317F8011B4160E18C013905
:1024C000E184E18C002900F0878001680906F1D4DD
:1024D000B9F1000F0AD0EDB1FFF73CF8801BA8421C
:1024E00018D8206801680906F6D5E3E701680906EF
:1024F000E0D4016809065CBF01685FEA0161D9D4D4
:1025000001680906F2D5D5E738F8021B00276FF3FA
:102510005F21D2E7206850E8030F216820F4D070D3
:1025200041E80302BAB3206850E8030F216820F4A1
:10253000D07041E8030272B3206850E8030F2168AD
:1025400020F4D07041E803022AB3206850E8030F5A
:10255000216820F4D07041E80302002ADAD11AE0A1
:10256000206850E8050F216820F0010041E80502CD
:10257000DAB1206850E8050F216820F0010041E839
:10258000050292B1206850E8050F216820F0010093
:1025900041E805024AB1206850E8050F216820F0A3
:1025A000010041E80502002ADAD1202084F8410028
:1025B00084F84200002084F84000032001B0BDE808
:1025C000F08300BF022001B0BDE8F0830027E18C5A
:1025D000206800297FF46AAF0168490619D4FDB16B
:1025E000691C0DD10168490613D4016849065CBF16
:1025F00001685FEA41610CD401684906F2D508E040
:10260000FEF7A8FF801BA8420AD820680068400691
:10261000F6D5202084F84100002001B0BDE8F08309
:10262000206850E8030F216820F4D07041E80302CD
:10263000002A3ED0206850E8030F216820F4D070B3
:1026400041E80302AAB3206850E8030F216820F490
:10265000D07041E8030262B3206850E8030F21689C
:1026600020F4D07041E80302002AD9D121E000BF54
:10267000206850E8050F216820F0010041E80502BC
:10268000002A3FF492AF206850E8050F216820F03F
:10269000010041E80502002A3FF487AF206850E8B6
:1026A000050F216820F0010041E80502002A3FF4EF
:1026B0007CAF206850E8050F216820F0010041E858
:1026C0000502002AD4D170E77047000041F20000F3
:1026D000C4F201004FF400510022FEF735FF00BFA5
:1026E000FEE700002DE9F04385B041F21800C4F286
:1026F0000200016840F6004941F0100101600168E4
:10270000C4F2010901F0100101910199016809F574
:10271000806541F0200101600168012201F0200183
:102720000191019901684FF4005641F008010160E0
:1027300001684FF0010801F0080101910199016859
:1027400041F00401016000684FF4005100F0040002
:10275000019001982846FEF7F7FE48460221012223
:102760000227FEF7F1FECDE9016801AE00242846FC
:102770003146CDE90347FEF7D9FD48463146CDE95C
:102780000178CDE90347FEF7D1FD05B0BDE8F08340
:1027900010B540F20014C2F2000443F60001C4F286
:1027A0000101204640F80C1F4FF4E13100220C23B8
:1027B000C0E90112C0E90322C0E90532C261FFF796
:1027C0002DFD002818BFFEF717FD04F10C0021466F
:1027D0000122BDE81040FFF7D9BD0000FEE7000070
:1027E000FEE700007047000010B540F2001EC2F284
:1027F000000EDEE9012048F21F5C121AC832C5F251
:10280000EB1C82FB0C318B1103EBD171C82401FB53
:102810001421012910DB411C81FB0C239A1102EBCE
:10282000D37240F25413C2F2000302FB1411185C7D
:10283000CEF8081010BD00BF4FF0FF3010BD0000F3
:102840007047000082B080B581B0CDE903234FF01E
:102850000102D0B1032918D1DDF80CE003AADDF89C
:1028600014C002F10C0352F8041FBEF1000F4FF028
:102870000102009318BF002907D0BCF1000F1EBF52
:102880000022C0E900E1C0E902C2104601B0BDE883
:10289000804002B070470000FEF762BE7047000043
:1028A000406A0021C185C184FFF706BA81B090F863
:1028B0004210222921D183680246B3F5805F09D1F5
:1028C00052F8281F52F8183C002B63D003685B684D
:1028D0000AE000BF52F8281F13B90369002BF5D096
:1028E00003685B6803F07F030B70116801311160AE
:1028F000C18D01390A04C18502D001B0704700BF03
:102900000168CA6822F02002CA60CA6822F4807294
:10291000CA604A6922F001024A61202180F842100F
:1029200000214163026B012A3CD10163016851E837
:10293000031F026821F0100142E80313DBB10168B4
:1029400051E8031F026821F0100142E8031393B11C
:10295000016851E8031F026821F0100142E80313E7
:102960004BB1016851E8031F026821F0100142E8F1
:102970000313002BDAD101680A68D20606D50022BB
:1029800000920A680092496800910099818D01B017
:10299000FFF790B9026852686FF35F2221F8022BAB
:1029A0008162A5E701B0FFF71BBD000040F20C10EB
:1029B000C2F20000FFF782B9FEE7000082B02DE905
:1029C000F04792B00DF104098A4605460DF16808FA
:1029D00048464021CDE91A23CDF84480FDF770FD2B
:1029E000119B484640215246FDF798FC04463F287B
:1029F0001CD9671C384600F08BFBE8B100213A4631
:102A0000064600F08FFB3046394652464346CDF825
:102A10004480FDF783FCAA6A2846314690474E451C
:102A20000BD0304600F072FB07E000BFAA6A01A994
:102A30002846904701E000BF0024204612B0BDE8C0
:102A4000F04702B07047000080B540F29800C2F233
:102A50000000426C43F257311030C0F6000190473D
:102A6000002080BDB0B540F29805C2F200052A6C86
:102A700005F1100405A1204690476A6C43F25731D6
:102A8000C0F60001204690470020B0BD61740000F0
:102A9000002804BF4FF0FF307047FEF7B3BB0000C3
:102AA000B0B5A8B108460D46FDF79EFC044682B2BB
:102AB00040F20C10C2F2000029464FF6FF73FFF7F8
:102AC000C7FC002818BF6FF001042046B0BD00BF4E
:102AD0004FF0FF30B0BD0000002804BF4FF0FF30C2
:102AE0007047FFF781BE00002DE9F047036882467A
:102AF00089469847DAF8380043F282310068C0F618
:102B00000001012200F006FB28B343F282380024C2
:102B1000C0F60008DAF8380007593846FDF764FCBB
:102B2000D9F8006005463046FDF75EFC854298BF47
:102B30000546384631462A4600F0ECFA70B1DAF81C
:102B4000380041462044C068012200F0E3FA002822
:102B500004F10C04DED10020BDE8F087DAF838007B
:102B60002044BDE8F08700002DE9F04F81B0904689
:102B70000D460029814600F09980286818B100F0C0
:102B8000C5FA002028606968012913DB05F10804F3
:102B90000027002603E000BF01368E420ADA54F80F
:102BA00026000028F8D000F0B1FA696844F82670D1
:102BB000F2E700BF481C032807D805EB81000C2270
:102BC0000C30A2EB8101FDF77BFC43F26331002462
:102BD000C0F6000140466C60FDF7D4FB296806464C
:102BE00019B1084600F092FA2C603046FDF7FCFB64
:102BF000441C0746204600F08BFA286040B10021B3
:102C0000224600F08FFA286831463A4600F084FAEE
:102C1000D9F8081048468847002868D0002D05F1EB
:102C2000040650D043F26338C0F600084FF0000BA2
:102C30000AE000BF481CD9F80810306048460BF184
:102C4000010B8847834552D200204146FDF79AFB8D
:102C500000284CD031680229ECD8074605EB8100EA
:102C6000806830B100F052FA6868002105EB8000FE
:102C700081603846FDF7B8FB441C8246204600F0D0
:102C800047FA6968002805EB81029060D2D00021E4
:102C9000224600F047FA6868394605EB80008068F4
:102CA000524600F039FA6868411CC3E743F26331C9
:102CB000C0F600014046FDF765FBD9F8081048460C
:102CC0008847A0B12E1D43F263350024C0F60005ED
:102CD00000202946FDF756FB48B13068D9F80810A6
:102CE000013030604846013488478442F0D30020E8
:102CF00001B0BDE8F08F000010B5044640F270202E
:102D0000C2F200000021322200F00CFA601E0528F9
:102D100014D8DFE800F00323313F4D5B40F2702010
:102D200043F26731C2F20000C0F60001102200F049
:102D3000F3F940F27020C2F2000010BD40F27020A2
:102D400043F27731C2F20000C0F600010C2200F01D
:102D5000E3F940F27020C2F2000010BD40F2702092
:102D6000C2F200003EA1162200F0D6F940F2702017
:102D7000C2F2000010BD00BF40F27020C2F200009D
:102D800031A1172200F0C8F940F27020C2F2000011
:102D900010BD00BF40F27020C2F2000022A120222C
:102DA00000F0BAF940F27020C2F2000010BD00BF7E
:102DB00040F27020C2F2000012A1242200F0ACF90F
:102DC00040F27020C2F2000010BD00BF40F270203F
:102DD000C2F2000004A11C2200F09EF940F2702013
:102DE000C2F2000010BD00BF415420746869732016
:102DF000737472696E672063616E27742062652048
:102E00006375740041542074686973207374726927
:102E10006E6720636F6D6D616E64206E6F742068E5
:102E200061766520616374004154206E6F74206682
:102E3000696E64207468697320737472696E6720A8
:102E4000636F6D6D616E64004154206F75747075B1
:102E50007420646576696365206572726F72000024
:102E6000415420696E7075742064657669636520CD
:102E70006572726F72000000002814BF406C4FF042
:102E8000FF307047002814BF806B0020704700009F
:102E90002DE9F04186B088B30A46002143680691C7
:102EA000CDE90411CDE90211019101A9984758B368
:102EB000816800293ED00DF10408404688470199F9
:102EC000044621B1084600F021F900200190029942
:102ED00001291FDB08F108060027002503E000BFD9
:102EE00001358D4216DA56F825000028F8D000F09A
:102EF0000DF9029946F82570F2E700BF012420463B
:102F000006B0BDE8F08100BF0424204606B0BDE84D
:102F1000F08100BF481C0328F1D808EB81000C2287
:102F20000C30A2EB8101FDF7CBFA204606B0BDE8DC
:102F3000F08100BF0524204606B0BDE8F081000006
:102F400070B50446C06B4168884788B1E06B816802
:102F5000884794F848100028C0B20BD4814209D0A9
:102F6000616DE26C4B1C63655054002070BD00BF66
:102F7000022070BD81421CBF022070BDE269E16C7D
:102F800020469047D4E91312054608460021002642
:102F900000F0C8F82846666570BD0000002804BF30
:102FA0004FF0FF307047006C002804BF6FF0010045
:102FB0007047026810470000F0B581B043F28236D6
:102FC000C26AC0F600060D463146044690472846C0
:102FD0003146012200F09EF8636A28B120A1204604
:102FE0002A46984703E000BF21A120469847A06BDE
:102FF00043F282310068C0F60001012200F08AF835
:1030000030B3A06B43F282310068C0F600010122A8
:1030100000F080F8C0B143F282366FF00B0717A5BD
:10302000C0F60006A06B636A3844C2682046294691
:103030009847A06B314638448069012200F06AF855
:10304000002807F10C07EDD1002001B0F0BD00BF52
:10305000E26A0CA120469047002001B0F0BD00BFFD
:1030600074686520736574282573293A200D0A0059
:10307000746865207365743A200D0A002D2D257340
:103080000D0A000068617665206E6F7468696E676E
:1030900020415420636F6D6D6F6E6421000000004D
:1030A000B0B578B1826A054690470446002807D437
:1030B000AA6A05A128469047002858BF2044044624
:1030C0002046B0BD0120B0BD0D0A000080B5436AA6
:1030D0000A4602A19847002080BD00BF41542B7BC7
:1030E00025737D00024600284FF001001EBF002915
:1030F000D163002070470000024600284FF0010015
:103100001EBF00291164002070470000FDF7DFB8E2
:10311000FDF7AEB8FDF73CB910B50446FDF783F9ED
:10312000204610BD10B51346CAB219460446FDF735
:10313000BFF9204610BD000010B584B040F29804DD
:1031400042F6D92CC2F2000442F6A12242F69123A3
:10315000C0F6000CC0F60002C0F6000320460321B2
:10316000CDF800C0FFF76EFB10B104B010BD00BF7A
:1031700040F2A221C820C2F20001CDE9001040F2C5
:1031800010014FF0000C04F11000C2F200012246C1
:103190002346CDF808C0FDF739FF04B010BD00008C
:1031A00010B582B004468DF8070040F20010C2F25C
:1031B00000000C300DF1070101224FF6FF73FFF7FD
:1031C00047F9204602B010BD90B0FEF7D7F90024B1
:1031D0000120CDE90B44CDE9094406900A904FF453
:1031E000E0104FF4803102250F9006A8CDE90714B6
:1031F000CDE90D51FEF76EFB20B1EFF3108072B6F2
:10320000FEE700BF0F20CDE901054FF48060CDE956
:10321000040401A802210394FEF754FA20B1EFF34D
:10322000108072B6FEE700BFFFF75CFAFFF7B0FA56
:10323000FFF782FF0FA109A2002808BF1146084628
:10324000FDF78AF812A0FDF787F840F2A804C2F251
:10325000000400BF216A20468847FBE7617420759F
:1032600073657220696E697469616C697A65206F33
:103270006B210D006174207573657220696E69742D
:1032800069616C697A65206661696C6564210D000D
:1032900053544D3332463130334338543620696EFF
:1032A000697469616C697A65204F4B210D000000DB
:1032B00030380A2801D201207047002070470000F2
:1032C00010B500290AD00878002807D005487844AE
:1032D000FDF75CFE002801D0002010BD02487844B4
:1032E00010BD0000D6000000CE000000000000006D
:1032F000000000003031323334353637383941423E
:103300004344454640305800303132333435363747
:1033100038396162636465664030780004000008F3
:10332000000000000000000200010000100000008A
:103330000000000000010203040607080900000065
:103340000001020304010202030405060708090A3A
:103350000B0C0D0E0F10104F4B0041542B4C530013
:10336000415400200D0A004154206E6F726D616C53
:10337000206572726F72004154206E6F2065727208
:103380006F720000B8340008000000203800000010
:1033900028010008F0340008380000203809000037
:1033A000440100081001000043000000F8FFFFFF87
:1033B0000040404040404040404041414141414048
:1033C00040404040404040404040404040404040FD
:1033D000400502020202020202020202020202028C
:1033E0000220202020202020202020020202020291
:1033F00002029090909090901010101010101010E9
:1034000010101010101010101010101002020202F4
:103410000202888888888888080808080808080838
:103420000808080808080808080808080202020234
:10343000400000000000000000000000000000004C
:10344000000000000000000000000000000000007C
:10345000000000000000000000000000000000006C
:10346000000000000000000000000000000000005C
:10347000000000000000000000000000000000004C
:10348000000000000000000000000000000000003C
:10349000000000000000000000000000000000002C
:1034A000000000000000000000000000000000001C
:1034B000000000000000000000000000010000000B
:1034C000100000000024F400603300080100000038
:1034D000492A00085A33000801000000652A000844
:1034E000823300080000000000000000000000001F
:04000005080000ED02
:00000001FF
