:020000040800F2
:100000001007002089010008690E0008790D00081A
:10001000650E0008710200087D0E00080000000057
:10002000000000000000000000000000710E000849
:1000300075020008000000006D0E0008750E000833
:10004000A3010008A3010008A3010008A301000800
:10005000A3010008A3010008A3010008A3010008F0
:10006000A3010008A3010008A3010008A3010008E0
:10007000A3010008A3010008A3010008A3010008D0
:10008000A3010008A3010008A3010008A3010008C0
:10009000A3010008A3010008A3010008A3010008B0
:1000A000A3010008A3010008A3010008A3010008A0
:1000B000A3010008A3010008A3010008A301000890
:1000C000A3010008A3010008A3010008A301000880
:1000D000A3010008A3010008A3010008A301000870
:1000E000A3010008A3010008A301000800F002F822
:1000F00000F03AF80AA090E8000C82448344AAF188
:100100000107DA4501D100F02FF8AFF2090EBAE885
:100110000F0013F0010F18BFFB1A43F0010318473B
:10012000740E0000940E0000103A24BF78C878C105
:10013000FAD8520724BF30C830C144BF04680C60ED
:10014000704700000023002400250026103A28BF35
:1001500078C1FBD8520728BF30C148BF0B60704739
:100160001FB51FBD10B510BD00F04DF81146FFF7CB
:10017000F7FF00F099FE00F06BF803B4FFF7F2FF11
:1001800003BC00F06FF800000948804709480047A9
:10019000FEE7FEE7FEE7FEE7FEE7FEE7FEE7FEE737
:1001A000FEE7FEE704480549054A064B7047000094
:1001B000790E0008ED000008100100201007002053
:1001C000100300201003002010B5044603E000F0E7
:1001D00057FE401C09D014F8010B05490028F6D140
:1001E000BDE810400A2000F04BBE4FF0FF3010BDBC
:1001F000700000207047704770470000004870474B
:100200001000002070477546FFF7F8FFAE46050066
:100210006946534620F00700854618B020B5FFF721
:10022000C1FFBDE820404FF000064FF000074FF03F
:1002300000084FF0000BAC46ACE8C009ACE8C009C0
:10024000ACE8C009ACE8C00921F007018D46704751
:1002500010B50446AFF300802046BDE81040FFF71C
:100260008CBF000001491820ABBEFEE7260002004B
:10027000FEE7000070470000EFF3108072B600BF89
:10028000FEE70000B0B5044600F02CF9054640F248
:100290000000C2F200000078611C18BF044400BFD7
:1002A00000F020F9401BA042FAD3B0BD2DE9F04F79
:1002B00082B00E68002E00F0038141F20042C4F2C9
:1002C0000102042340F2004E904208BF03234FF680
:1002D000FF7CC4F2010E009300240123C1F2100C34
:1002E0004FF0000A4FF0000949E000BF012704F079
:1002F0000C030F229A402BEA020207FA03F34FEA9B
:100300009A051A4346F82520D1F804B040F20C456E
:100310005FEACB22DEF8082054BF22EA080242EA54
:100320000802C4F20105CEF808202A685FEA8B2390
:1003300054BF22EA080242EA08022A605FEA8B33CD
:10034000DEF8042054BF22EA080242EA08025FEA0B
:10035000CB33CEF80420DEF800204FF0010354BF69
:1003600022EA080242EA0802CEF800200E680AF1EA
:10037000010A36FA0AF204F1040400F0A18003FA3B
:100380000AF816EA080FF1D04E68664512DC122E04
:1003900056D8DFE806F0350B4549555555555555A6
:1003A000555555555555554D510000BFD1F80C9038
:1003B00046E000BF4FF6FF72C1F2210296420FDC09
:1003C0000022C1F2110296421AD00022C1F212029A
:1003D000964215D00022C1F22102964210D02FE0A1
:1003E0000022C1F2220296420AD00022C1F231025A
:1003F000964205D00022C1F23202964220D100BFBF
:100400008A684AB1012A14BFC0F81480C0F810806D
:100410004FF0080914E000BF4FF0040910E000BFDE
:10042000CA6802F108090BE04FF0000908E000BFBC
:10043000CA6802F1040903E0CA6802F10C0900BFAE
:1004400022460646BAF1080F24BF203A0436376820
:100450000F25954027EA050509FA02F22A43326082
:10046000CA79D2067FF582AF41F21803C4F20203C3
:100470001A68AEF57E7642F001021A601A6802F040
:1004800001020192019A2AF0030256F802B040F6E6
:100490000002C4F20102904210D040F60042C4F2C1
:1004A000010290423FF422AF41F20002C4F2010285
:1004B000009F904208BF022719E700BF002716E7F8
:1004C00002B0BDE8F08F0000C26802EA0103914368
:1004D00041EA034101617047002A08BF0904016134
:1004E0007047000040F20C10C2F200000068704734
:1004F00040F2000040F20C11C2F20000C2F2000112
:1005000000780A68104408607047000080B542F225
:100510000000C4F20200016841F0100101600320F4
:1005200000F072F80F2000F005F800F027F8002026
:1005300080BD000070B540F20006C2F2000640F235
:1005400008013278C2F200014FF47A730968B3FBF4
:10055000F2F20446B1FBF2F1084600F047FB0F2C23
:100560004FF0010508D838B94FF0FF30214600227E
:10057000002500F01DF87460284670BD82B041F27D
:100580001800C4F20200016841F001010160016835
:1005900001F0010101910199416841F080514160F0
:1005A000406800F080500090009802B07047000052
:1005B00010B54EF60C5CCEF2000CDCF80030C3F344
:1005C000022E8EF00704042C28BF0424BEF103037E
:1005D0004FF0FF3E0EFA04F438BF0023A1439940C8
:1005E0000EFA03F39A43114300F00F0200F1604347
:1005F0000901043A03F564436244002848BF02F14C
:100600000C03197010BD00004EF60C51CEF2000123
:100610000A684FF6FF031A4060F30A2242F0806036
:1006200040F0FD70086070472DE9F04381B000286C
:1006300000F0858042F20008C4F202080446D8F8AF
:1006400000000D4600F0070088420CD2D8F80000E8
:1006500020F007002843C8F80000D8F8000000F098
:100660000700A8426BD1206841F204098107C4F257
:10067000020917D5410705D5D9F8001041F4E0610A
:10068000C9F80010010705D5D9F8001041F46051F0
:10069000C9F80010D9F80010A26821F0F001114348
:1006A000C9F80010C00741D1D8F8000000F00700D9
:1006B000A8420CD9D8F8000020F007002843C8F859
:1006C0000000D8F8000000F00700A84237D12068E9
:1006D000410707D5D9F80010E26821F4E061114321
:1006E000C9F80010000708D5D9F80000216920F4E6
:1006F000605040EAC100C9F80000D9F8002002F0BB
:100700000C00082841F20020C0F27A0050D140F6D7
:100710008273C2F38341C0F60003595CD2033BD419
:1007200040F60010C0F23D00484341E060680228F6
:100730000AD001282AD159F8041C890308D40120C1
:1007400001B0BDE8F08300BF59F8041C8901F6D55B
:10075000D9F8001021F003010843C9F80000FFF7A1
:10076000C1FE064641F28837D9F80000616800F002
:100770000C00B0EB810F97D0FFF7B4FE801BB8429E
:10078000F2D9032001B0BDE8F08300BF59F8041C82
:100790008907D4D5DCE700BFD9F8002040F6807384
:1007A000C2F34042C0F600039A5C4843B0FBF2F04B
:1007B000D9F8001040F66872C1F30311C0F60002C8
:1007C000515C40F2080220FA01F140F20400C2F24A
:1007D00000000068C2F200021160FFF7ABFE0020CB
:1007E00001B0BDE8F083000040F2080041F20401CE
:1007F000C2F20000C4F202010068096840F6787293
:10080000C1F30221C0F60002515CC84070470000ED
:1008100040F2080041F20401C2F20000C4F20201F9
:100820000068096840F67872C1F3C221C0F6000280
:10083000515CC840704700002DE9F04182B00028AB
:1008400068D00446007841F20006C007C4F20206F0
:1008500025D0706800F00C0004281BD0706800F0F0
:100860000C00082802D17068C00313D46068002807
:1008700000F06881B0F5A02F00F07C81B0F5803FDA
:1008800000F07C81306820F480303060306820F4E3
:10089000802076E13068800301D56068D0B320788D
:1008A000800718D5706810F00C0F07D0706800F042
:1008B0000C0008286ED17068C0036BD430688007C4
:1008C00002D52069012825D13068616920F0F8003F
:1008D00040EAC1003060207800071FD4207840072C
:1008E00032D4E56995B1706800F00C00082840F03A
:1008F0008F80012D0ED07068216A00F480328A4208
:1009000008D1616A00F47010884203D1002002B05F
:10091000BDE8F081012002B0BDE8F081A0690028A7
:1009200062D00020C4F242200121C0F88014FFF7F9
:10093000D9FD0546706A800700F18C80FFF7D2FD73
:10094000401B0228F6D92AE1F06910F0805808D13E
:10095000F06940F08050F061F06900F08050009044
:10096000009847F20007C4F200073868C00529D490
:10097000386840F480703860FFF7B4FD054600BF6A
:100980003868C0051ED4FFF7ADFD401B6428F7D9B9
:1009900005E100BF2069002840F20000C4F24220B7
:1009A00000F0828001210160FFF79CFD054600BF39
:1009B000306880073FF588AFFFF794FD401B0228A1
:1009C000F6D9ECE0E068002800F08080052800F00F
:1009D0009780012800F09880306A20F00100306292
:1009E000306A20F0040092E00020C4F2422000218E
:1009F000C0F88014FFF776FD054600BF706A8007D7
:100A00007FF56CAFFFF76EFD401B0228F6D9C6E0FC
:100A10000027C4F2422700203866FFF763FD022D4D
:100A200005460BD13068800140F1BE80FFF75AFDCA
:100A3000401B02284FF00300F4D968E730688001BA
:100A40007FF564AFFFF74EFD401B02284FF0030017
:100A5000F4D95CE740F20800C2F20000006844F6F6
:100A6000D351C1F26201A0FB0101480A019000BF0D
:100A700000BF0198411E002801913FF42FAF00BF35
:100A80000198411E002801913FF428AF00BF019852
:100A9000411E002801913FF421AF00BF0198411E83
:100AA00000280191E4D119E700210160FFF71AFD48
:100AB000054600BF306880077FF50DAFFFF712FDD8
:100AC000401B02284FF00300F4D920E7306A20F0E1
:100AD00001003062306A20F004003062FFF702FD4E
:100AE000054641F2883700BF306A800720D5FFF7FE
:100AF000F9FC401BB8424FF00300F5D907E700BFEF
:100B0000306A40F004003062306A40F00100306228
:100B1000FFF7E8FC054641F2883700BF306A8007DE
:100B200006D4FFF7DFFC401BB842F7D937E000BF1F
:100B3000B8F1000F7FF4D5AEF06920F08050F0617D
:100B4000CFE600BF306820F480303060306820F499
:100B500080203060FFF7C6FC054600BF3068800388
:100B60007FF59DAEFFF7BEFC401B64284FF00300ED
:100B7000F4D9CCE6306840F480203060306840F42E
:100B800080303060FFF7AEFC054600BF3068800360
:100B90003FF585AEFFF7A6FC401B6428F6D903207D
:100BA00002B0BDE8F08100BF206AB0F5803F05D1FA
:100BB0007168A26821F40031114371607168626A42
:100BC00021F4741111430843706001203866FFF767
:100BD00089FC0446306880013FF598AEFFF782FC3F
:100BE000001B02284FF00300F4D990E6411E0020BC
:100BF000B0EB116F1CBF012070474EF21002CEF215
:100C0000000251604EF62351CEF20001F0230B702A
:100C10000721906011607047002804BF01207047D1
:100C200010B5044690F8410028B9002084F840002F
:100C3000204600F063F8242084F841002068D4E9BD
:100C40000212C36823F40053C360036923F44053C2
:100C50001A430261D4E904231143C268194341F2E3
:100C60000C639A431143C1604169A26921F4407148
:100C7000114343F60002C4F201029042416103D0E5
:100C8000FFF7B2FD02E000BFFFF7C2FD6268192165
:100C900048439100B0FBF1F048F21F51C5F2EB114F
:100CA000A0FB01235A094FF69C73C0F6FF7302FBA9
:100CB0000300322303EB0010A0FB0101F02303EA41
:100CC0005113206803EB0212C1F3431111448160F8
:100CD000016921F490410161416921F02A014161DA
:100CE000C16841F40051C16000202021606484F893
:100CF000411084F84210606310BD000070B586B0EA
:100D000040F60004C4F20104006804F540510026D6
:100D10008842049602D006B070BD00BF41F21800B0
:100D2000C4F20200016802AD41F480410160016833
:100D300001F4804101910199016841F004010160D1
:100D40000068294600F00400019001984FF40070FB
:100D5000029002200390032005902046FFF7A6FA98
:100D60004FF48060CDE90206204629460496FFF73D
:100D70009DFA06B070BD0000FEE700002DE9F043CB
:100D800085B041F21800C4F20200016840F6004943
:100D900041F0100101600168C4F2010901F0100185
:100DA00001910199016809F5806541F02001016018
:100DB0000168012201F020010191019901684FF4BD
:100DC000005641F00801016001684FF0010801F090
:100DD000080101910199016841F004010160006876
:100DE0004FF4005100F00400019001982846FFF7ED
:100DF00073FB4846022101220227FFF76DFBCDE974
:100E0000016801AE002428463146CDE90347FFF7CB
:100E10004DFA48463146CDE90178CDE90347FFF761
:100E200045FA05B0BDE8F08380B540F2C40043F652
:100E30000001C2F20000C4F2010100234FF00C0CCB
:100E40004FF4E13280E80E00C0E90333C0E905C386
:100E5000C361FFF7E1FE002808BF80BDBDE8804008
:100E6000FFF70ABAFEE70000FEE700007047000047
:100E700070470000FFF73CBB70470000FEE7000032
:100E800043F60001C4F201010A68520609D40A6857
:100E900052065CBF0A685FEA426202D40A685206E0
:100EA000F2D5C2B24A60704790B0FFF72FFB002422
:100EB0000120CDE90B44CDE9094406900A904FF496
:100EC000E0104FF4803102250F9006A8CDE90714F9
:100ED000CDE90D51FFF7B0FC20B1EFF3108072B6F1
:100EE000FEE700BF0F20CDE901054FF48060CDE99A
:100EF000040401A802210394FFF796FB20B1EFF34D
:100F0000108072B6FEE700BF40F60044C4F2010450
:100F1000FFF734FFFFF788FF0BA0FFF755F92046D6
:100F20000221FFF7D1FA04F5806500BF20460221B7
:100F3000FFF7CAFA28464FF40051FFF7C5FA4FF4FD
:100F4000FA70FFF79FF9F1E753544D3332463130D1
:100F5000334338543620696E697469616C697A6507
:100F6000204F4B210D000000000000000000000099
:100F7000010203040607080900000000010203043F
:100F8000010202030405060708090A0B0C0D0E0FE7
:100F900010100000B80F0008000000201000000032
:100FA00028010008C80F00081000002000070000FA
:100FB00044010008000000000100000010000000D3
:080FC0000024F4000000000011
:04000005080000ED02
:00000001FF
