:020000040800F2
:100000004812002029020008D1260008D125000846
:10001000CD260008F5100008A928000800000000FF
:100020000000000000000000000000003127000870
:10003000F910000800000000D526000889270008F4
:10004000430200084302000843020008430200087C
:10005000430200084302000843020008430200086C
:10006000430200084302000843020008430200085C
:10007000430200084302000843020008430200084C
:10008000430200084302000843020008430200083C
:10009000430200084302000843020008430200082C
:1000A000430200084302000843020008430200081C
:1000B000430200084302000843020008430200080C
:1000C00043020008430200084302000843020008FC
:1000D000430200089D28000843020008430200086C
:1000E00043020008430200084302000800F002F83F
:1000F00000F08BF80AA090E8000C82448344AAF137
:100100000107DA4501D100F080F8AFF2090EBAE834
:100110000F0013F0010F18BFFB1A43F0010318473B
:100120002C3700004C370000103A24BF78C878C143
:10013000FAD8520724BF30C830C144BF04680C60ED
:10014000704700000023002400250026103A28BF35
:1001500078C1FBD8520728BF30C148BF0B60704739
:100160006E2900F0CD81702900F011836629AFF36C
:1001700000806529AFF300806729AFF30080612913
:10018000AFF3008003681B0A28BF41F08001692992
:1001900000F07A81642900F07781752900F074817C
:1001A0006F2900F09F82782900F0DD82E92900F0B4
:1001B0003982E42900F03682F52900F03382EF29F4
:1001C00000F09C82F82900F0DC820368DB0928BF7C
:1001D00041F08001632900F07384732900F0788472
:1001E000E32900F08384F32900F08884002070471D
:1001F0001FB500F005FD04000020002103F0BAFA4D
:10020000401C60601FBD10B510BD00F0BDFC114664
:10021000FFF7EEFF02F0F0FF00F0E4FC03B4FFF79D
:10022000F2FF03BC00F030FD094880470948004751
:10023000FEE7FEE7FEE7FEE7FEE7FEE7FEE7FEE796
:10024000FEE7FEE704480549054A064B70470000F3
:100250008D270008ED000008480C002048120020FF
:10026000480E0020480E00207CB51D4616460C00A6
:10027000009007D04142A14202D32044401E01E039
:100280004FF0FF30064B7B442A46694601903046CA
:1002900000F04FF9002C02D0009A002111707CBDB3
:1002A000CF02000010B5044603E002F091FF401CAD
:1002B00009D014F8010B05490028F6D1BDE810401B
:1002C0000A2002F085BF4FF0FF3010BD640200200D
:1002D000014A00F02BBB00000000002010B5431CB9
:1002E00002E010F8011B71B18107FAD14FF0013221
:1002F00002C88C1A8C4314EAC211F9D0C01A0A063B
:1003000003D0C01E10BDC01A10BD0A0401D0801E4B
:1003100010BD0902FCD0401E10BD02F0FF0343EAED
:10032000032242EA024200F002B84FF00002042920
:10033000C0F0128010F0030C00F01B80CCF1040C14
:10034000BCF1020F18BF00F8012BA8BF20F8022B48
:10035000A1EB0C0100F00DB85FEAC17C24BF00F8EE
:10036000012B00F8012B48BF00F8012B70474FF01C
:10037000000200B5134694469646203922BFA0E8F5
:100380000C50A0E80C50B1F12001BFF4F7AF090701
:1003900028BFA0E80C5048BF0CC05DF804EB8900F2
:1003A00028BF40F8042B08BF704748BF20F8022B35
:1003B00011F0804F18BF00F8012B7047704770474D
:1003C000704770B5044685690068C10601D53026BE
:1003D00000E02026C00707D070BDD4E901213046D7
:1003E0009047206A401C20626D1EF6D570BD70B526
:1003F000044685690078C00707D170BDD4E90121A2
:1004000020209047206A401C20626D1EF6D570BDEA
:1004100009684A0501D540B27047C905FCD500B24C
:10042000704709684A0501D5C0B27047C905FCD5B7
:1004300080B2704770B50C460546012A05D0287871
:10044000800600D5EA69002302E0012305E05B1C79
:10045000934202D2E05C0028F9D1A869E618C01ADC
:10046000A861286A184428622846FFF7AAFF04E01A
:10047000D5E9012114F8010B9047B442F8D328467E
:10048000FFF7B5FF70BD00002DE9F04106460024DE
:1004900010687529314616A510D0FFF7B9FF00285E
:1004A00002DA404213A507E031688A0701D512A598
:1004B00002E0490704D511A5012401E0FFF7B1FFCF
:1004C00000210A2206F1240709E0B0FBF2FCB0FB90
:1004D000F2F302FB1C00303078541846491C002807
:1004E000F3D123462A463046BDE8F04100F085BAF4
:1004F000000000002D0000002B0000002000000084
:1005000011680268006A530501D508700AE0D30536
:1005100001D5088006E0130603D5C217C1E9000221
:1005200000E008600120704701694A1C02610878F8
:10053000704700B58FB0CDE9013100210591054923
:100540007944CDE903101146684600F02BF90FB04D
:1005500000BD0000E5FFFFFFD1E900239A4202D26F
:10056000531C0B60107070472DE9FF5F15468A46DB
:100570000446DFF8AC80F8440027D8E900103E4676
:10058000CDE9001010E03AF816106A4602A800F013
:10059000B9FA411C07D02178890603D5E2693918D8
:1005A00091420DD80744761C2078800602D5E06978
:1005B000B84205DDAE42E6DB3AF816000028E2D18B
:1005C000A069C01BA0612046FFF7FBFED8E9001020
:1005D000CDE90010002017E03AF818106A4602A88A
:1005E00000F090FAB0F1FF3F81460BD000250DF1ED
:1005F000080B05E0D4E901211BF8050090476D1CAC
:100600004D45F7D308F10100B0428046E4DB206A93
:10061000384420622046FFF7EAFEBDE8FF9F000055
:10062000263200002DE9F0418046D21D22F007025B
:100630000025D2E90002F52915A614D0011E72F199
:10064000000106DA0023D0EB030063EB020211A6DF
:1006500008E0D8F800108B0701D50FA602E0490783
:1006600001D50EA601251146002408F1240704E057
:1006700000F07EF930323A55641C50EA0102F7D19D
:100680002B46324621464046BDE8F04100F0B5B960
:10069000000000002D0000002B00000020000000E2
:1006A00030B4002100F1240408E002F00705D2086C
:1006B000303542EA4372DB086554491C52EA0305AF
:1006C000F3D10468002310A2250708D504F0200404
:1006D0000C4304D0C46901230CA2641EC46130BC65
:1006E00000F08BB910B5044621461068FFF799FE5B
:1006F00002462046BDE810400023D1E7D21D22F07B
:100700000701D1E90023CBE7000000003000000022
:10071000F0B40D460188090502D5214C7C4402E065
:100720001F4C7C440E34002100F1240608E002F046
:100730000F071209E75D42EA03721B097754491C4F
:1007400052EA0307F3D102780023120704D5702D73
:1007500006D009B1022311342246F0BC00F04DB995
:1007600001231034F8E770B504460D4621461068A1
:10077000FFF757FE024629462046BDE87040002399
:10078000C6E7D21D22F00703D3E90023C0E70368C0
:10079000126843F0200303600823C3610023B7E716
:1007A000883000002DE9F05F894604464FF0000ACA
:1007B000DFF874B1FB44C0F820A02046E168884708
:1007C000002874D0252806D0D4E901219047206A5A
:1007D000401C2062F1E700265F462046E16888471A
:1007E0002028054607DB312D05D2781910F8200C9A
:1007F00008B10643F1E7B00701D526F00406C4F8B6
:100800001CA00027C4F818A02A2D09D0284602F001
:10081000A9FF38B304EB8708303DC8F8185019E039
:1008200059F8041B204604EB87029161E168884770
:10083000012F054618D1E069002820DA26F02006AD
:100840001DE0D8F8180000EB800005EB40003038C0
:10085000C8F818002046E1688847054602F082FF84
:100860000028EED1012F0AD02E2D08D12046E168B4
:1008700088477F1C0546022F46F02006C4DBA0698E
:10088000002803DA404246F00106A061F00701D0DB
:1008900026F010066C2D0BD0682D09D04C2D39D0C8
:1008A0006A2D35D0742D35D07A2D33D016E038E04E
:1008B000E1682F4620468847B842054609D16C2F8B
:1008C00026D04FF48060E1680643204688470546FD
:1008D00004E06C2F1AD04FF4807006430DB3A5F1DD
:1008E0004100192802D8203546F400664A462946B8
:1008F000204626604E46FFF733FC80B101280BD01E
:10090000F61D26F0070000F1080956E74020E4E74D
:100910008020D8E70020D6E706F104094DE72846F5
:1009200052E7206ABDE8F09F183000002DE9F04141
:1009300015460E46040002D12C6804B90BA42046CB
:1009400000F014F90444207870B127463146384647
:1009500000F0FCF80444207810B1002004F8010BEA
:1009600038462C60BDE8F0810027F9E70000000060
:1009700030B5B0F10A0271F100034FEA900E4EEA71
:10098000817EB0EB0E0061EB91014FEA101E4EEA42
:10099000017E10EB0E0041EB11114FEA102E4EEAD2
:1009A000016E10EB0E0041EB11214FEA104E4EEAA2
:1009B000014E10EB0E0041EB1141401841F10001D6
:1009C0004FEAD00040EA41704FEAD1014FEA81047A
:1009D00044EA907410EB800544EB01046D1944EB7C
:1009E0000404521BA3414FF0000348BF0A3200D554
:1009F00030BD401C41F1000130BD2DE9F0470D46EE
:100A000099469246044600F124080168880604D5F8
:100A1000E06921F01001216000E00120A84201DD21
:100A2000471B00E00027A1697A1902EB0900081AA8
:100A3000A0612078C00602D42046FFF7C2FC002641
:100A400008E0D4E901211AF806009047206A401C0A
:100A5000761C20624E45F4DB2078C0060AD520467D
:100A6000FFF7AFFC06E0D4E9012130209047206A6F
:100A7000401C2062381EA7F10107F4DC07E0D4E92E
:100A8000012118F805009047206A401C2062281EAA
:100A9000A5F10105F3DC2046FFF7A9FC207800064C
:100AA00002D50220BDE8F0870120FBE710B54369BD
:100AB00013B1AFF3008001E0FFF7BCFC012010BDD3
:100AC000127800F124010A7000224A700122EDE739
:100AD00011684FF0FF32E9E710B5436913B1AFF386
:100AE000008001E0FFF740FD012010BD128800F1F9
:100AF000240182840022C2840122EDE711684FF0B4
:100B0000FF32E9E72DE9F04116460C46054600F0B4
:100B100061F8036893F80101012807D0FF2C12D86F
:100B2000185D80B101202C70BDE8F081D3F8070179
:100B30003246214603F20713C7182846BC46BDE8D3
:100B4000F041002360474FF0FF30EDE730B503463A
:100B50001D781DB10A4603E0AC4201D1181A30BD20
:100B600012F8014B002CF7D15B1CF1E730B50346BE
:100B70001D783DB10A4612F8014B1CB1AC42FAD1C6
:100B80005B1CF5E7181A30BD754600F035F8AE4627
:100B900005006946534620F00700854618B020B589
:100BA000FFF750FBBDE820404FF000064FF0000774
:100BB0004FF000084FF0000BAC46ACE8C009ACE8C1
:100BC000C009ACE8C009ACE8C00921F007018D46B6
:100BD0007047000010B500F013F8001D10BD00BFF5
:100BE000952B000010B50446AFF300802046BDE809
:100BF0001040FFF713BB0000004870478000002042
:100C000000487047A00000204FF0013C50F8042B32
:100C100051F8043B9A4221D1A2EB0C03934313EA0F
:100C2000CC1317D150F8042B51F8043B9A4215D13C
:100C3000A2EB0C03934313EACC130BD150F8042B13
:100C400051F8043B9A4209D1A2EB0C03934313EAF7
:100C5000CC13DBD04FF00000704700BFD01A01BAB0
:100C6000B1FA81F101F0180122FA01F0CB40DBB2B8
:100C7000C0B2C01AC1F120012CFA01F3D11A91437C
:100C800011EAC311E6D1704701491820ABBEFEE757
:100C90002600020070470000F0B581B0069D0446B2
:100CA00035B1032D68D90125284601B0F0BD00BF3C
:100CB000002C18BF00294CD0002A4AD0002B48D065
:100CC0000320C4E910300A2084F8480042F67D3041
:100CD000C4E90E12C0F6000042F6FD2142F67D6224
:100CE00042F6896343F2E50543F2F90C42F6FD4E04
:100CF000C0F60001C0F60002C0F60003C0F6000511
:100D0000C0F6000CC0F6000E84E82F5042F6417089
:100D1000C0F60000206242F6AD00C0F6000060623E
:100D200042F69D70C0F60000A06243F2A100C0F63A
:100D30000000E06242F6B970C0F6000042F6956627
:100D4000206343F2CD00C0F60006C0F60000E66165
:100D50006063C8202065C82002F0DCF90028E06448
:100D600000F0D280226D0021002502F0DFF96565D8
:100D7000284601B0F0BD00BF0DF11C0C0CF10400C1
:100D800000900798012D61D10CF108070428009705
:100D9000C0F0BA80002C18BF002950D0002A4ED0D5
:100DA000002B4CD0DCF8047004F1380C8CE88E0079
:100DB0000A2184F8481042F67D31C0F6000142F65F
:100DC000FD2242F67D6342F68967C0F60002C0F656
:100DD0000003C0F6000784E88E0042F64171C0F6B9
:100DE0000001216242F6AD01C0F60001616242F6E7
:100DF0009D71C0F60001A16243F2A101C0F600019D
:100E0000E16242F6B971C0F6000143F2E50643F231
:100E1000F90542F6FD4C42F6956E216343F2CD0191
:100E2000C0F60006C0F60005C0F6000CC0F6000EC5
:100E3000C0F60001C4E90465C4E906CE616320651B
:100E400002F068F90028E0648CD15DE004285BD3EF
:100E5000002C18BF002950D0002A4ED0002B4CD0B7
:100E6000C4E90E120321C4E910310A2184F84810A4
:100E700042F67D31C0F6000142F6FD2242F67D6366
:100E800042F6896643F2E505C0F60002C0F60003AB
:100E9000C0F60006C0F6000543F2F90C42F6FD4E1E
:100EA00084E84E0004F11001C0F6000CC0F6000EFC
:100EB00081E8205042F64171C0F60001216242F6FD
:100EC000AD01C0F60001616242F69D71C0F60001FD
:100ED000A16243F2A101C0F60001E16242F6B971DC
:100EE000C0F6000142F69567216343F2CD01C0F6DA
:100EF0000007C0F60001E7616163206502F00AF9AE
:100F00000028E0647FF42EAF0125284601B0F0BD33
:100F10002DE9F04782B00C9D9646DDE90AC20446F1
:100F200025B1022D64D90125E0E000BFBCF1000F1E
:100F30004FF0010500F0DA80042AC0F0D780002CC1
:100F400018BF002900F0C580BEF1000F00F0C1807D
:100F5000002B00F0BE800320C4E910300A2084F882
:100F6000480042F67D30C4E90E1EC0F6000042F68D
:100F7000FD2142F67D6342F68966C0F60001C0F6A7
:100F80000003C0F6000684E84B0042F64170C0F64C
:100F90000000206242F6AD00C0F60000606242F63A
:100FA0009D70C0F60000A06243F2A100C0F60000F0
:100FB000E06242F6B970C0F6000043F2E50543F284
:100FC000F90E42F6FD4742F69568206343F2CD00E4
:100FD000C0F60005C0F6000EC0F60007C0F6000817
:100FE000C0F60000C4E9045EC4E90678606370E0FE
:100FF0000DAE301D01900D98012D15D106F108059B
:101000000195BCF1000F4FF001056FD0042A6DD39C
:10101000002C18BF00295CD0BEF1000F59D0002B66
:1010200057D0756811E000BFBCF1000F4FF001050B
:101030005CD0042A5AD3002C18BF002949D0BEF135
:10104000000F46D0002B44D00A25C4E9103042F6E8
:101050007D3084F84850C0F6000042F6FD2342F689
:101060007D6542F6896643F2E50743F2F90842F6E8
:10107000FD4942F6956AC0F60003C0F60005C0F6C9
:101080000006C0F60007C0F60008C0F60009C0F66A
:10109000000A84E8E90742F64170C0F6000042F613
:1010A000AD0342F69D7543F2A10642F6B97743F2CD
:1010B000CD0804F12009C0F60003C0F60005C0F613
:1010C0000006C0F60007C0F6000889E8E901C4E997
:1010D0000E1E60460021C4E913C2002502F026F866
:1010E0006565284602B0BDE8F08700BF284602B01B
:1010F000BDE8F087FEE7000070470000EFF31080C6
:1011000072B600BFFEE7000040F2E000C2F200004D
:10111000D0E90110081A48F21F51C830C5F2EB118E
:1011200080FB0112911101EBD271C82201FB120068
:1011300070470000014690F82100022816D1086887
:10114000D1E90FC3026822F00E020260026822F0A9
:1011500001020260012000FA03F2CCF8042081F8B9
:1011600021000020002281F820207047042088639D
:101170000120002281F820207047000080B590F8FF
:101180002110022924D10268116821F00E0111609A
:101190002F211368C4F202018A4240F20401C4F212
:1011A000020123F00103136016DD3023C4F20203B1
:1011B0009A421DD04423C4F202039A421CD0582301
:1011C000C4F202039A421DD14FF4803322E000BFE3
:1011D00004218163012080BD0823C4F202039A42E6
:1011E0000ED01C23C4F202039A420BD1102311E04B
:1011F0004FF480730EE000BF4FF480530AE000BF4D
:10120000012307E001F1680C4FF08073624508BFCD
:101210004FF480130B60012180F82110426B0021F4
:1012200080F820100AB190470021084680BD0000D8
:101230002DE9F04F82B00E68002E00F0038141F2DC
:101240000042C4F20102042340F2004E904208BF63
:1012500003234FF6FF7CC4F2010E00930024012308
:10126000C1F2100C4FF0000A4FF0000949E000BF36
:10127000012704F00C030F229A402BEA020207FA1E
:1012800003F34FEA9A051A4346F82520D1F804B033
:1012900040F20C455FEACB22DEF8082054BF22EA78
:1012A000080242EA0802C4F20105CEF808202A68C2
:1012B0005FEA8B2354BF22EA080242EA08022A604E
:1012C0005FEA8B33DEF8042054BF22EA080242EAC8
:1012D00008025FEACB33CEF80420DEF800204FF09E
:1012E000010354BF22EA080242EA0802CEF80020B5
:1012F0000E680AF1010A36FA0AF204F1040400F059
:10130000A18003FA0AF816EA080FF1D04E68664584
:1013100012DC122E56D8DFE806F0350B454955553C
:1013200055555555555555555555554D510000BFB9
:10133000D1F80C9046E000BF4FF6FF72C1F22102D7
:1013400096420FDC0022C1F2110296421AD000220E
:10135000C1F21202964215D00022C1F22102964239
:1013600010D02FE00022C1F2220296420AD00022C1
:10137000C1F23102964205D00022C1F232029642F9
:1013800020D100BF8A684AB1012A14BFC0F8148076
:10139000C0F810804FF0080914E000BF4FF00409B6
:1013A00010E000BFCA6802F108090BE04FF0000925
:1013B00008E000BFCA6802F1040903E0CA6802F14C
:1013C0000C0900BF22460646BAF1080F24BF203A96
:1013D000043637680F25954027EA050509FA02F219
:1013E0002A433260CA79D2067FF582AF41F21803F0
:1013F000C4F202031A68AEF57E7642F001021A606A
:101400001A6802F001020192019A2AF0030256F8CA
:1014100002B040F60002C4F20102904210D040F641
:101420000042C4F2010290423FF422AF41F20002B6
:10143000C4F20102009F904208BF022719E700BFD3
:10144000002716E702B0BDE8F08F0000002A08BFB1
:10145000090401617047000040F64040C2F20000FC
:101460000068704740F2580040F64041C2F2000068
:10147000C2F2000100780A6810440860704700005A
:1014800080B542F20000C4F20200016841F0100190
:101490000160032000F088F8032000F005F800F058
:1014A00027F8002080BD000070B540F25806C2F257
:1014B000000640F260013278C2F200014FF47A7304
:1014C0000968B3FBF2F20446B1FBF2F1084600F002
:1014D0005DFB0F2C4FF0010508D838B94FF0FF30F5
:1014E00021460022002500F033F87460284670BDC4
:1014F00082B041F21800C4F20200016841F001011B
:101500000160016801F0010101910199416841F018
:1015100080514160406800F08050009000980520A4
:1015200002B000F041B80000002848BF7047C1B2C7
:1015300000F01F00012202FA00F04EF20012CEF27B
:10154000000242EAD10121F0030108607047000067
:1015500010B54EF60C5CCEF2000CDCF80030C3F394
:10156000022E8EF00704042C28BF0424BEF10303CE
:101570004FF0FF3E0EFA04F438BF0023A143994018
:101580000EFA03F39A43114300F00F0200F1604397
:101590000901043A03F564436244002848BF02F19C
:1015A0000C03197010BD00004EF60C51CEF2000174
:1015B0000A684FF6FF031A4060F30A2242F0806087
:1015C00040F0FD70086070472DE9F04381B00028BD
:1015D00000F0858042F20008C4F202080446D8F800
:1015E00000000D4600F0070088420CD2D8F8000039
:1015F00020F007002843C8F80000D8F8000000F0E9
:101600000700A8426BD1206841F204098107C4F2A7
:10161000020917D5410705D5D9F8001041F4E0615A
:10162000C9F80010010705D5D9F8001041F4605140
:10163000C9F80010D9F80010A26821F0F001114398
:10164000C9F80010C00741D1D8F8000000F0070029
:10165000A8420CD9D8F8000020F007002843C8F8A9
:101660000000D8F8000000F00700A84237D1206839
:10167000410707D5D9F80010E26821F4E061114371
:10168000C9F80010000708D5D9F80000216920F436
:10169000605040EAC100C9F80000D9F8002002F00B
:1016A0000C00082841F20020C0F27A0050D143F229
:1016B000FB73C2F38341C0F60003595CD2033BD4F1
:1016C00040F60010C0F23D00484341E06068022847
:1016D0000AD001282AD159F8041C890308D4012012
:1016E00001B0BDE8F08300BF59F8041C8901F6D5AC
:1016F000D9F8001021F003010843C9F80000FFF7F2
:10170000ABFE064641F28837D9F80000616800F068
:101710000C00B0EB810F97D0FFF79EFE801BB84204
:10172000F2D9032001B0BDE8F08300BF59F8041CD2
:101730008907D4D5DCE700BFD9F8002043F2F9735C
:10174000C2F34042C0F600039A5C4843B0FBF2F09B
:10175000D9F8001043F2E172C1F30311C0F60002A0
:10176000515C40F2600220FA01F140F25C00C2F2EA
:1017700000000068C2F200021160FFF795FE002031
:1017800001B0BDE8F083000040F2600041F20401C6
:10179000C2F20000C4F202010068096843F2F1726B
:1017A000C1F30221C0F60002515CC840704700003E
:1017B00040F2600041F20401C2F20000C4F20201F2
:1017C0000068096843F2F172C1F3C221C0F6000259
:1017D000515CC840704700002DE9F04182B00028FC
:1017E00068D00446007841F20006C007C4F2020641
:1017F00025D0706800F00C0004281BD0706800F041
:101800000C00082802D17068C00313D46068002857
:1018100000F06881B0F5A02F00F07C81B0F5803F2A
:1018200000F07C81306820F480303060306820F433
:10183000802076E13068800301D56068D0B32078DD
:10184000800718D5706810F00C0F07D0706800F092
:101850000C0008286ED17068C0036BD43068800714
:1018600002D52069012825D13068616920F0F8008F
:1018700040EAC1003060207800071FD4207840077C
:1018800032D4E56995B1706800F00C00082840F08A
:101890008F80012D0ED07068216A00F480328A4258
:1018A00008D1616A00F47010884203D1002002B0B0
:1018B000BDE8F081012002B0BDE8F081A0690028F8
:1018C00062D00020C4F242200121C0F88014FFF74A
:1018D000C3FD0546706A800700F18C80FFF7BCFDF0
:1018E000401B0228F6D92AE1F06910F0805808D18F
:1018F000F06940F08050F061F06900F08050009095
:10190000009847F20007C4F200073868C00529D4E0
:10191000386840F480703860FFF79EFD054600BFD0
:101920003868C0051ED4FFF797FD401B6428F7D91F
:1019300005E100BF2069002840F20000C4F2422007
:1019400000F0828001210160FFF786FD054600BF9F
:10195000306880073FF588AFFFF77EFD401B022807
:10196000F6D9ECE0E068002800F08080052800F05F
:101970009780012800F09880306A20F001003062E2
:10198000306A20F0040092E00020C4F242200021DE
:10199000C0F88014FFF760FD054600BF706A80073D
:1019A0007FF56CAFFFF758FD401B0228F6D9C6E063
:1019B0000027C4F2422700203866FFF74DFD022DB4
:1019C00005460BD13068800140F1BE80FFF744FD31
:1019D000401B02284FF00300F4D968E7306880010B
:1019E0007FF564AFFFF738FD401B02284FF003007E
:1019F000F4D95CE740F26000C2F20000006844F6EF
:101A0000D351C1F26201A0FB0101480A019000BF5D
:101A100000BF0198411E002801913FF42FAF00BF85
:101A20000198411E002801913FF428AF00BF0198A2
:101A3000411E002801913FF421AF00BF0198411ED3
:101A400000280191E4D119E700210160FFF704FDAE
:101A5000054600BF306880077FF50DAFFFF7FCFC3F
:101A6000401B02284FF00300F4D920E7306A20F031
:101A700001003062306A20F004003062FFF7ECFCB5
:101A8000054641F2883700BF306A800720D5FFF74E
:101A9000E3FC401BB8424FF00300F5D907E700BF55
:101AA000306A40F004003062306A40F00100306279
:101AB000FFF7D2FC054641F2883700BF306A800745
:101AC00006D4FFF7C9FC401BB842F7D937E000BF86
:101AD000B8F1000F7FF4D5AEF06920F08050F061CE
:101AE000CFE600BF306820F480303060306820F4EA
:101AF00080203060FFF7B0FC054600BF30688003EF
:101B00007FF59DAEFFF7A8FC401B64284FF0030053
:101B1000F4D9CCE6306840F480203060306840F47E
:101B200080303060FFF798FC054600BF30688003C6
:101B30003FF585AEFFF790FC401B6428F6D90320E3
:101B400002B0BDE8F08100BF206AB0F5803F05D14A
:101B50007168A26821F40031114371607168626A92
:101B600021F4741111430843706001203866FFF7B7
:101B700073FC0446306880013FF598AEFFF76CFCBB
:101B8000001B02284FF00300F4D990E6411E00200C
:101B9000B0EB116F1CBF012070474EF21002CEF265
:101BA000000251604EF62351CEF20001F0230B707B
:101BB0000721906011607047704700007047000077
:101BC000B0B582B0044600680168C368426901F09C
:101BD0002F05202D03F0200506D12DB1204602B09F
:101BE000BDE8B04000F0DABD5FEA017C1EBF02F044
:101BF000010E03F4907212EB0E0253D1226B012AF4
:101C000005D111F0100218BF13F0100236D10A06E8
:101C100022D513F080021FD094F8411021293FD122
:101C2000A168B1F5805F03D12169002900F07082BD
:101C3000216A4A1C226209784160E18C01390A0458
:101C4000E1842DD1C16821F08001C160C16841F0FB
:101C50004001C16002B0B0BD490621D513F040017A
:101C60001ED0C16821F04001C1602021204684F8C7
:101C7000411002B0BDE8B04000F0A8BC00210191C5
:101C8000016801914168019101994069400613D4AE
:101C9000A08DE18DE28D002A18BF884240F0BA8104
:101CA00002B0B0BDCA0718BF13F4807240F0B6800E
:101CB0004A0700F1B980BEE0E06B016849688AB26A
:101CC000002AEDD0A38D9A42EAD2E18580692028CE
:101CD00000F09C80206850E8030F216820F4807099
:101CE00041E80302DAB1206850E8030F216820F4CC
:101CF000807041E8030292B1206850E8030F216828
:101D000020F4807041E803024AB1206850E8030FD4
:101D1000216820F4807041E80302002ADAD12068AB
:101D200050E8050F216820F0010041E80502DAB112
:101D3000206850E8050F216820F0010041E8050205
:101D400092B1206850E8050F216820F0010041E8B9
:101D500005024AB1206850E8050F216820F0010013
:101D600041E80502002ADAD1206850E8050F216811
:101D700020F0400041E80502DAB1206850E8050F84
:101D8000216820F0400041E8050292B1206850E847
:101D9000050F216820F0400041E805024AB12068A3
:101DA00050E8050F216820F0400041E80502002AB4
:101DB000DAD1202084F8420000202063206850E817
:101DC000030F216820F0100041E80302DAB1206817
:101DD00050E8030F216820F0100041E8030292B19F
:101DE000206850E8030F216820F0100041E803024A
:101DF0004AB1206850E8030F216820F0100041E844
:101E00000302002ADAD1E06BFFF794F90220606345
:101E1000A08DE18D401A81B2204674E1626C42F0DF
:101E2000010262644A0706D5BEF1000F03D0626C5E
:101E300042F0020262648A0706D5BEF1000F03D0A9
:101E4000626C42F004026264BCF1000F09D545EAFD
:101E50000E02B2FA82F2520903D1626C42F0080219
:101E60006264626C002A3FF41BAF11F0200118BFBE
:101E7000002D03D0204600F091FC20684069616C81
:101E800000F0400001F00801401800F0B58000BFEC
:101E9000206850E8030F216820F4907041E80302A5
:101EA000BAB3206850E8030F216820F4907041E82D
:101EB000030272B3206850E8030F216820F4907089
:101EC00041E803022AB3206850E8030F216820F498
:101ED000907041E80302002ADAD11AE0206850E845
:101EE000050F216820F0010041E80502DAB1206801
:101EF00050E8050F216820F0010041E8050292B189
:101F0000206850E8050F216820F0010041E8050233
:101F10004AB1206850E8050F216820F0010041E82F
:101F20000502002ADAD1206B012824D1206850E86C
:101F3000030F216820F0100041E80302DAB12068A5
:101F400050E8030F216820F0100041E8030292B12D
:101F5000206850E8030F216820F0100041E80302D8
:101F60004AB1206850E8030F216820F0100041E8D2
:101F70000302002ADAD1202084F8420000202063E6
:101F80002068406940063FD5206850E8050F216869
:101F900020F0400041E80502DAB1206850E8050F62
:101FA000216820F0400041E8050292B1206850E825
:101FB000050F216820F0400041E805024AB1206881
:101FC00050E8050F216820F0400041E80502002A92
:101FD000DAD1E06BC0B142F29171C0F60001416309
:101FE000FFF7CCF800283FF45BAEE06B416B02B02A
:101FF000BDE8B040084700BF2046FFF7DFFD0020E6
:10200000606402B0B0BD00BF204602B0BDE8B04081
:10201000FFF7D4BD401A216851E8031F226821F45C
:10202000907142E80313DBB1216851E8031F226875
:1020300021F4907142E8031393B1216851E8031F22
:10204000226821F4907142E803134BB1216851E8F2
:10205000031F226821F4907142E80313002BDAD1A8
:10206000216851E8051F226821F0010142E80513AB
:10207000DBB1216851E8051F226821F0010142E827
:10208000051393B1216851E8051F226821F0010171
:1020900042E805134BB1216851E8051F226821F081
:1020A000010142E80513002BDAD1202184F8421007
:1020B00000212163216851E8031F226821F01001EB
:1020C00042E80313DBB1216851E8031F226821F0C5
:1020D000100142E8031393B1216851E8031F2268FD
:1020E00021F0100142E803134BB1216851E8031FAE
:1020F000226821F0100142E80313002BDAD10222FA
:1021000081B22046626302B0BDE8B040FFF754BD23
:10211000216A31F8022B6FF35F22426021628CE565
:10212000002804BF0120704710B5044690F8410014
:1021300028B9002084F84000204600F063F82420ED
:1021400084F841002068D4E90212C36823F40053E4
:10215000C360036923F440531A430261D4E90423A2
:102160001143C268194341F20C639A431143C160A1
:102170004169A26921F44071114343F60002C4F29F
:1021800001029042416103D0FFF7FEFA02E000BF76
:10219000FFF70EFB6268192148439100B0FBF1F094
:1021A00048F21F51C5F2EB11A0FB01235A094FF66B
:1021B0009C73C0F6FF7302FB0300322303EB001095
:1021C000A0FB0101F02303EA5113206803EB021284
:1021D000C1F3431111448160016921F4904101610F
:1021E000416921F02A014161C16841F40051C16097
:1021F00000202021606484F8411084F8421060635C
:1022000010BD000070B586B040F60004C4F20104B1
:10221000006804F5405100268842049602D006B0BA
:1022200070BD00BF41F21800C4F20200016802ADA7
:1022300041F480410160016801F4804101910199FC
:10224000016841F0040101600068294600F00400C3
:10225000019001984FF40070029002200390032037
:1022600005902046FEF7E4FF4FF48060CDE90206BA
:10227000204629460496FEF7DBFF25200121002297
:10228000FFF766F92520FFF74FF906B070BD000093
:1022900090F84230202B1CBF0220704700294FF0DD
:1022A000010318BF002A01D11846704700230363B9
:1022B000816222218285C285436480F842100169CF
:1022C000006819B1C16841F48071C160416900239F
:1022D00041F001014161C16841F02001C16018462F
:1022E00070470000B0B5016843F60002C4F2010275
:1022F000914218BFB0BD40F2E005C2F20005D5E939
:10230000012348F21F5CD31AC833C5F2EB1C83FBD0
:102310000C14A11101EBD4714FF0C80E01FB1E315A
:10232000C6290EDC511C81FB0C34A31103EBD473C2
:102330002C7803FB1E1140F29C13C2F200039C5444
:10234000696040F2E001C2F200010122BDE8B04044
:10235000FFF79EBF2DE9F04381B0044690F841009D
:10236000202840F0B180884600294FF0010000F09D
:10237000D6801646002A00F0D2800020606421201A
:102380001D4684F84100FFF767F8A684E684A1683B
:102390000646B1F5805F03D12069002800F09880DF
:1023A00047464FF00008E18C2068002900F0968035
:1023B00005F101090BE000BF47B317F8011B4160AD
:1023C000E18C0139E184E18C002900F0878001680B
:1023D0000906F1D4B9F1000F0AD0EDB1FFF73CF8CE
:1023E000801BA84218D8206801680906F6D5E3E7E3
:1023F00001680906E0D4016809065CBF01685FEA6C
:102400000161D9D401680906F2D5D5E738F8021B75
:1024100000276FF35F21D2E7206850E8030F21689F
:1024200020F4D07041E80302BAB3206850E8030FEB
:10243000216820F4D07041E8030272B3206850E8AC
:10244000030F216820F4D07041E803022AB320680A
:1024500050E8030F216820F4D07041E80302002AFD
:10246000DAD11AE0206850E8050F216820F0010059
:1024700041E80502DAB1206850E8050F216820F034
:10248000010041E8050292B1206850E8050F21687B
:1024900020F0010041E805024AB1206850E8050F2C
:1024A000216820F0010041E80502002ADAD120204D
:1024B00084F8410084F84200002084F840000320A2
:1024C00001B0BDE8F08300BF022001B0BDE8F08399
:1024D0000027E18C206800297FF46AAF0168490673
:1024E00019D4FDB1691C0DD10168490613D40168E6
:1024F00049065CBF01685FEA41610CD40168490686
:10250000F2D508E0FEF7A8FF801BA8420AD8206891
:1025100000684006F6D5202084F84100002001B074
:10252000BDE8F083206850E8030F216820F4D070E4
:1025300041E80302002A3ED0206850E8030F2168DA
:1025400020F4D07041E80302AAB3206850E8030FDA
:10255000216820F4D07041E8030262B3206850E89B
:10256000030F216820F4D07041E80302002AD9D17A
:1025700021E000BF206850E8050F216820F001002D
:1025800041E80502002A3FF492AF206850E8050FA9
:10259000216820F0010041E80502002A3FF487AFDE
:1025A000206850E8050F216820F0010041E805028D
:1025B000002A3FF47CAF206850E8050F216820F026
:1025C000010041E80502002AD4D170E770470000FD
:1025D000FEE700002DE9F04385B041F21800C4F297
:1025E0000200016840F6004941F0100101600168F5
:1025F000C4F2010901F0100101910199016809F586
:10260000806541F0200101600168012201F0200194
:102610000191019901684FF4005641F008010160F1
:1026200001684FF0010801F008010191019901686A
:1026300041F00401016000684FF4005100F0040013
:10264000019001982846FEF701FF48460221012229
:102650000227FEF7FBFECDE9016801AE0024284603
:102660003146CDE90347FEF7E3FD48463146CDE963
:102670000178CDE90347FEF7DBFD05B0BDE8F08347
:1026800010B540F2E004C2F2000443F60001C4F2C7
:102690000101204640F80C1F4FF4E13100220C23C9
:1026A000C0E90112C0E90322C0E90532C261FFF7A7
:1026B00037FD002818BFFEF721FD04F10C0021466C
:1026C0000122BDE81040FFF7E3BD0000FEE7000077
:1026D000FEE700007047000010B540F2E00EC2F2C5
:1026E000000EDEE9012048F21F5C121AC832C5F262
:1026F000EB1C82FB0C318B1103EBD171C82401FB65
:102700001421012910DB411C81FB0C239A1102EBDF
:10271000D37240F29C13C2F2000302FB1411185C46
:10272000CEF8081010BD00BF4FF0FF3010BD000004
:102730007047000082B080B581B0CDE903234FF02F
:102740000102D0B1032918D1DDF80CE003AADDF8AD
:1027500014C002F10C0352F8041FBEF1000F4FF039
:102760000102009318BF002907D0BCF1000F1EBF63
:102770000022C0E900E1C0E902C2104601B0BDE894
:10278000804002B070470000FEF76CBE704700004A
:10279000406A0021C185C184FFF710BA81B090F86A
:1027A0004210222921D183680246B3F5805F09D106
:1027B00052F8281F52F8183C002B63D003685B685E
:1027C0000AE000BF52F8281F13B90369002BF5D0A7
:1027D00003685B6803F07F030B70116801311160BF
:1027E000C18D01390A04C18502D001B0704700BF14
:1027F0000168CA6822F02002CA60CA6822F48072A6
:10280000CA604A6922F001024A61202180F8421020
:1028100000214163026B012A3CD10163016851E848
:10282000031F026821F0100142E80313DBB10168C5
:1028300051E8031F026821F0100142E8031393B12D
:10284000016851E8031F026821F0100142E80313F8
:102850004BB1016851E8031F026821F0100142E802
:102860000313002BDAD101680A68D20606D50022CC
:1028700000920A680092496800910099818D01B028
:10288000FFF79AB9026852686FF35F2221F8022BB2
:102890008162A5E701B0FFF725BD000040F2EC0022
:1028A000C2F20000FFF78CB9FEE7000082B02DE90C
:1028B000F04792B00DF104098A4605460DF168080B
:1028C00048464021CDE91A23CDF84480FDF74FFD5D
:1028D000119B484640215246FDF7C6FC04463F285E
:1028E0001CD9671C384600F015FCE8B100213A46B7
:1028F000064600F01BFC3046394652464346CDF8AA
:102900004480FDF7B1FCAA6A2846314690474E45FF
:102910000BD0304600F0FAFB07E000BFAA6A01A91D
:102920002846904701E000BF0024204612B0BDE8D1
:10293000F04702B07047000080B540F23410C2F298
:102940000000426C43F619011030C0F600019047B8
:10295000002080BDF0B581B00546406801282DD12A
:10296000A868FDF7BBFC441C0746204600F0D2FBDC
:1029700090B3002122460646002400F0D7FBA96848
:1029800030463A4600F0CCFB40F2B825C2F20005D2
:10299000EA692846314690470746304600F0B6FBC4
:1029A000F7B1042F22D12A6B43F60B01C0F60001C8
:1029B0002846904704241BA11AE000BF40F2B8202B
:1029C000C2F20000026B43F60B01C0F60001904713
:1029D00001240CA10CE000BF01240EA108E000BFFF
:1029E00043F61901C0F6000102E000BF12A13C4607
:1029F00040F23410C2F20000426C10309047204682
:102A000001B0F0BD6572726F7220627920617267E9
:102A1000630000006572726F72206279206D616CD4
:102A20006C6F63006572726F72206279206E6F74D2
:102A300020666F756E6400006572726F7220627935
:102A4000206172677600000080B540F60040C4F255
:102A5000010002210122FEF7F9FC002080BD0000E8
:102A600080B540F60040C4F2010002210022FEF7CA
:102A7000EDFC002080BD0000B0B540F23415C2F27C
:102A800000052A6C05F1100405A1204690476A6CE8
:102A900043F61901C0F60001204690470020B0BD62
:102AA00061740000002804BF4FF0FF307047FEF74C
:102AB0002BBB0000B0B5A8B108460D46FDF70EFCD3
:102AC000044682B240F2EC00C2F2000029464FF602
:102AD000FF73FFF73FFC002818BF6FF0010420468A
:102AE000B0BD00BF4FF0FF30B0BD0000002804BFF4
:102AF0004FF0FF307047FFF7EFBD00002DE9F047C2
:102B00000368824689469847DAF8380043F64B0155
:102B10000068C0F60001012200F000FB28B343F674
:102B20004B080024C0F60008DAF838000759384688
:102B3000FDF7D4FBD9F8006005463046FDF7CEFB23
:102B4000854298BF0546384631462A4600F0E6FAE7
:102B500070B1DAF8380041462044C068012200F024
:102B6000DDFA002804F10C04DED10020BDE8F08776
:102B7000DAF838002044BDE8F08700002DE9F04F76
:102B800081B090460029814600F0968008680D4685
:102B900018B100F0BBFA002028606968012913DB36
:102BA00005F108040027002603E000BF01368E422D
:102BB0000ADA54F826000028F8D000F0A7FA69686D
:102BC00044F82670F2E700BF481C022807D805EB3E
:102BD000810008220C30A2EB8101FDF7C8FB43F60F
:102BE0002C010024C0F6000140466C60FDF770FB2C
:102BF0002968064619B1084600F088FA2C6030466C
:102C0000FDF76CFB441C0746204600F083FA286061
:102C100040B10021224600F089FA286831463A4640
:102C200000F07EFAD9F8081048468847002861D09D
:102C3000002D4DD043F62C084FF0000AC0F60008D6
:102C4000002606E0D9F80810484601368847864233
:102C500050D200204146FDF73BFB00284AD00746F2
:102C600068680228EED805EB8000806830B100F07B
:102C70004DFA686805EB8000C0F808A03846FDF7FB
:102C80002DFB441C8346204600F044FA6968002866
:102C900005EB81018860D5D00021224600F046FA7C
:102CA0006868394605EB800080685A4600F038FABB
:102CB000686801306860C5E743F62C01C0F6000182
:102CC0004046FDF705FBD9F808104846884788B10B
:102CD00043F62C050024C0F6000500BF002029465D
:102CE000FDF7F6FA30B1D9F80810484601348847A4
:102CF0008442F3D3002001B0BDE8F08F10B5044644
:102D000040F21030C2F200000021322200F00EFA30
:102D1000601E052814D8DFE800F00323313F4D5B27
:102D200040F2103043F63001C2F20000C0F600015C
:102D3000102200F0F5F940F21030C2F2000010BD90
:102D400040F2103043F64001C2F20000C0F600012C
:102D50000C2200F0E5F940F21030C2F2000010BD84
:102D600040F21030C2F200003EA1162200F0D8F965
:102D700040F21030C2F2000010BD00BF40F210302F
:102D8000C2F2000031A1172200F0CAF940F210305F
:102D9000C2F2000010BD00BF40F21030C2F20000CD
:102DA00022A1202200F0BCF940F21030C2F2000053
:102DB00010BD00BF40F21030C2F2000012A1242268
:102DC00000F0AEF940F21030C2F2000010BD00BFBA
:102DD00040F21030C2F2000004A11C2200F0A0F961
:102DE00040F21030C2F2000010BD00BF4154207408
:102DF00068697320737472696E672063616E2774EB
:102E000020626520637574004154207468697320E2
:102E1000737472696E6720636F6D6D616E64206E8E
:102E20006F74206861766520616374004154206E80
:102E30006F742066696E642074686973207374729D
:102E4000696E6720636F6D6D616E64004154206F21
:102E50007574707574206465766963652065727237
:102E60006F720000415420696E707574206465763D
:102E7000696365206572726F72000000002814BFDC
:102E8000406C4FF0FF307047002814BF806B00206B
:102E9000704700002DE9F04186B078B30A46002162
:102EA0004368CDE90411CDE90211019101A99847C8
:102EB00050B3816800293DD00DF104084046884791
:102EC0000199044621B1084600F020F90020019044
:102ED000029901291EDB08F108060027002502E0FF
:102EE00001358D4216DA56F825000028F8D000F09A
:102EF0000DF9029946F82570F2E700BF012420463B
:102F000006B0BDE8F08100BF0424204606B0BDE84D
:102F1000F08100BF481C0228F1D808EB810008228C
:102F20000C30A2EB8101FDF722FA204606B0BDE885
:102F3000F08100BF0524204606B0BDE8F081000006
:102F400070B50446C06B4168884788B1E06B816802
:102F5000884794F848100028C0B20BD4814209D0A9
:102F6000616DE26C4B1C63655054002070BD00BF66
:102F7000022070BD81421CBF022070BDE269E16C7D
:102F800020469047D4E91312054608460021002642
:102F900000F0CCF82846666570BD0000002804BF2C
:102FA0004FF0FF307047006C002804BF6FF0010045
:102FB0007047026810470000F0B581B043F64B0639
:102FC000C26AC0F600060D463146044690472846C0
:102FD0003146012200F0A2F8636A28B120A1204600
:102FE0002A46984703E000BF21A120469847A06BDE
:102FF00043F64B010068C0F60001012200F08EF894
:1030000030B3A06B43F64B010068C0F6000101220B
:1030100000F084F8C0B143F64B066FF00B0717A51C
:10302000C0F60006A06B636A3844C2682046294691
:103030009847A06B314638448069012200F06EF851
:10304000002807F10C07EDD1002001B0F0BD00BF52
:10305000E26A0CA120469047002001B0F0BD00BFFD
:1030600074686520736574282573293A200D0A0059
:10307000746865207365743A200D0A002D2D257340
:103080000D0A000068617665206E6F7468696E676E
:1030900020415420636F6D6D6F6E6421000000004D
:1030A000B0B578B1826A054690470446002807D437
:1030B000AA6A05A128469047002858BF2044044624
:1030C0002046B0BD0120B0BD0D0A000080B5436AA6
:1030D0000A4602A19847002080BD00BF41542B7BC7
:1030E00025737D00024600284FF001001EBF002915
:1030F000D163002070470000024600284FF0010015
:103100001EBF002911640020704700000146002006
:1031100000F05CB90146002000F07CB900F0B0BAC4
:1031200010B5044600F0DAFA204610BD10B5C9B259
:10313000044600F00DFB204610BD000010B584B021
:1031400040F2341442F6ED2CC2F2000442F6B522ED
:1031500042F6A523C0F6000CC0F60002C0F600033C
:1031600020460321CDF800C0FFF7E4FA10B104B007
:1031700010BD00BF40F242316420C2F20001CDE92F
:10318000001040F20401C2F200014FF0000C04F103
:103190001000243122462346CDF808C0FDF7B8FEC2
:1031A0000028E4D1012040F23412009040F2B8200F
:1031B00040F20401C2F200020A24C2F20000C2F28C
:1031C000000113460194FDF767FD04B010BD000037
:1031D00010B582B004468DF8070040F2E000C2F25C
:1031E00000000C300DF1070101224FF6FF73FFF7CD
:1031F000B1F8204602B010BD90B0FEF741F90024AE
:103200000120CDE90B44CDE9094406900A904FF422
:10321000E0104FF4803102250F9006A8CDE9071485
:10322000CDE90D51FEF7D8FA20B1EFF3108072B658
:10323000FEE700BF0F20CDE901054FF48060CDE926
:10324000040401A802210394FEF7BEF920B1EFF3B4
:10325000108072B6FEE700BFFFF7BCF9FFF710FA67
:10326000002000F03FF8FFF769FF0FA108A2002837
:1032700008BF11460846FDF715F812A0FDF712F831
:1032800040F24414C2F20004216A20468847FBE75A
:103290006174207573657220696E697469616C6907
:1032A0007A65206F6B210D00617420757365722043
:1032B000696E697469616C697A65206661696C65BB
:1032C00064210D0053544D3332463130334338546A
:1032D0003620696E697469616C697A65204F4B218B
:1032E0000D00000070B540F26405C2F2000505EB68
:1032F00080060446F0688021FDF717F8B0684FF4A7
:103300000061FDF712F828190121017470BD000059
:1033100080B540F26401C2F2000101EB8000D0F8F8
:103320000CE000220EF1100C002300BF3EF802005A
:103330000EEB02010028488818BF01330028888856
:1033400018BF01330028C88818BF01330028088936
:1033500018BF01330028488918BF01330028888925
:1033600018BF013300280CEB020030F8020C18BF24
:10337000013300283CF8020018BF01330028488AB6
:1033800018BF01330028888A18BF01330028C88A73
:1033900018BF01330028088B18BF01330028488B61
:1033A00018BF01330028888B18BF01330028C88B51
:1033B00018BF0133002802F1200218BF0133802A10
:1033C000B4D164205843C0F3871080BD80B5E1B10B
:1033D00040F26402C2F2000213181B7CB3B102EB8C
:1033E00080039B68C91A0023B3EBD12F0DD102EBE8
:1033F0008000C0684A0930F81210002908BF80BD5B
:1034000000EB42004900FCF790FF80BD1168BDE869
:10341000804008472DE9F04381B040F26406C2F2D3
:10342000000604463044007C0D4628B14FF00000F1
:103430004DB901B0BDE8F083316820468847002DC2
:103440004FF00000F5D015F01F0206EB840E18BFF8
:103450000122DEF80C804FEA551C02EB55110023C7
:1034600008EB4004B4F87E50002D4FF0000508BF73
:103470005D1C8D4200F09480B4F87C30002B4FF03E
:10348000000308BF6B1C8B4200F08E80B4F87A50AA
:10349000002D4FF0000508BF5D1C8D4200F08880B4
:1034A000B4F87830002B4FF0000308BF6B1C8B4240
:1034B00000F08280B4F87650002D4FF0000508BF70
:1034C0005D1C8D427CD0B4F87430002B4FF00003AB
:1034D00008BF6B1C8B4277D0B4F87250002D4FF0B0
:1034E000000508BF5D1C8D4272D0B4F87030002B0F
:1034F0004FF0000308BF6B1C8B426DD0B4F86E50C8
:10350000002D4FF0000508BF5D1C8D4268D0B4F857
:103510006C30002B4FF0000308BF6B1C8B4263D054
:10352000B4F86A50002D4FF0000508BF5D1C8D42B5
:103530005ED0B4F86830002B4FF0000308BF6B1C5E
:103540008B4259D0B4F86650002D4FF0000508BFEB
:103550005D1C8D4254D0B4F86430002B4FF0000352
:1035600008BF6B1C8B424FD0B4F86250002D4FF057
:10357000000508BF5D1C8D424AD0B4F86030002BB6
:103580004FF0000308BF6B1C8B4245D0103810F180
:1035900040047FF465AF002001B0BDE8F08300BFB8
:1035A00000F13F093AE000BF00F13E0936E000BFFC
:1035B00000F13D0932E000BF00F13C092EE000BF00
:1035C00000F13B092AE000BF00F13A0926E000BF04
:1035D00000F1390922E000BF00F138091EE000BF08
:1035E00000F137091AE000BF00F1360916E000BF0C
:1035F00000F1350912E000BF00F134090EE000BF10
:1036000000F133090AE000BF00F1320906E000BF13
:1036100000F1310902E000BF00F1300949B3624412
:10362000013A032A01F0030202D2002414E000BF91
:1036300021F0030508EB490300246FF0010600BFE9
:1036400003EB440004349F19A54206F10806798073
:10365000418081803981F3D15AB104EB0903012AF9
:1036600028F8131005D008EB4303022A598018BF2D
:103670009980DEF8080000EB491001B0BDE8F08346
:103680002DE9F04132B3A2F1030CA2F1020EA2F136
:1036900001080025435D4E5D9B1B17D1A84519D03D
:1036A0004E1947197B7874781B1B0FD1AE4511D08A
:1036B000BB78B4781B1B09D1AC450BD0FB78F478F0
:1036C0001B1B03D10435AA42E4D100231846BDE8F0
:1036D000F08100BF0020BDE8F0810000B0B5AAB3C2
:1036E00012F00303A2F1010C0AD08E461EF8015B12
:1036F0000446012B04F8015B04D12046624611E028
:103700008E460FE04D78022B457005D1023A01F14B
:10371000020E023006E000BF8B78033A01F1030E7F
:1037200083700330BCF1030F38BFB0BDAEF10401AC
:10373000043800BF11F8043F043A00F8043F4B7806
:1037400043708B788370CB78C370F3D1B0BD000029
:10375000002A08BF704780B50B4611461A46FCF791
:10376000DCFD80BD30380A2801D2012070470020DE
:103770007047000010B500290AD00878002807D04B
:1037800005487844FDF740FA002801D0002010BD1C
:103790000248784410BD0000EA000000E20000008A
:1037A000000000000000000030313233343536377D
:1037B0003839414243444546403058003031323375
:1037C0003435363738396162636465664030780075
:1037D00004000008000000000000000200010000DA
:1037E00010000000000000000001020304060708AA
:1037F000090000000001020304010202030405069F
:103800000708090A0B0C0D0E0F10106174204C45AF
:10381000440041542B4C4544004F4B0041542B4C29
:1038200053004154006F6666006F6E00200D0A0061
:103830004154206E6F726D616C206572726F720000
:103840004154206E6F206572726F720080390008DB
:10385000000000208000000028010008003A000855
:1038600080000020C8110000440100081001000081
:1038700043000000F8FFFFFF004040404040404050
:103880004040414141414140404040404040404033
:1038900040404040404040404005020202020202D7
:1038A0000202020202020202022020202020202026
:1038B000202020020202020202029090909090903A
:1038C00010101010101010101010101010101010F8
:1038D000101010100202020202028888888888886C
:1038E0000808080808080808080808080808080858
:1038F0000808080802020202400000000000000060
:1039000000000000000000000000000000000000B7
:1039100000000000000000000000000000000000A7
:103920000000000000000000000000000000000097
:103930000000000000000000000000000000000087
:103940000000000000000000000000000000000077
:103950000000000000000000000000000000000067
:103960000000000000000000000000000000000057
:103970000000000000000000000000000000000047
:10398000000000002938000801000000612A00083A
:103990002538000801000000492A00084B380008BB
:1039A00000000000000000002238000801000000B4
:1039B000392900081C38000801000000792A000895
:1039C0001238000801000000552900084B38000893
:1039D00000000000000000000100000010000000D6
:1039E0000024F400E532000811330008C003002071
:1039F000C00B0020000000000000000000000000DC
:04000005080000ED02
:00000001FF
